{
	"contracts/CrowFunding.sol": {
		"CrowdFunding": {
			"abi": [
				{
					"inputs": [
						{
							"internalType": "string",
							"name": "_projectName",
							"type": "string"
						},
						{
							"internalType": "bool",
							"name": "_isActive",
							"type": "bool"
						}
					],
					"stateMutability": "nonpayable",
					"type": "constructor"
				},
				{
					"inputs": [],
					"name": "balance",
					"outputs": [
						{
							"internalType": "uint256",
							"name": "",
							"type": "uint256"
						}
					],
					"stateMutability": "view",
					"type": "function"
				},
				{
					"inputs": [
						{
							"internalType": "string",
							"name": "_newProjectName",
							"type": "string"
						}
					],
					"name": "changeProjectName",
					"outputs": [],
					"stateMutability": "nonpayable",
					"type": "function"
				},
				{
					"inputs": [
						{
							"internalType": "bool",
							"name": "_newState",
							"type": "bool"
						}
					],
					"name": "changeProjectState",
					"outputs": [],
					"stateMutability": "nonpayable",
					"type": "function"
				},
				{
					"inputs": [],
					"name": "getBalance",
					"outputs": [
						{
							"internalType": "uint256",
							"name": "",
							"type": "uint256"
						}
					],
					"stateMutability": "view",
					"type": "function"
				},
				{
					"inputs": [],
					"name": "getProjectName",
					"outputs": [
						{
							"internalType": "string",
							"name": "",
							"type": "string"
						}
					],
					"stateMutability": "view",
					"type": "function"
				},
				{
					"inputs": [
						{
							"internalType": "address payable",
							"name": "receiver",
							"type": "address"
						}
					],
					"name": "sendEther",
					"outputs": [],
					"stateMutability": "payable",
					"type": "function"
				}
			],
			"devdoc": {
				"kind": "dev",
				"methods": {},
				"version": 1
			},
			"evm": {
				"assembly": "    /* \"contracts/CrowFunding.sol\":70:1234  contract CrowdFunding {... */\n  mstore(0x40, 0x80)\n    /* \"contracts/CrowFunding.sol\":206:387  constructor(string memory _projectName, bool _isActive) {... */\n  callvalue\n  dup1\n  iszero\n  tag_1\n  jumpi\n  0x00\n  dup1\n  revert\ntag_1:\n  pop\n  mload(0x40)\n  sub(codesize, bytecodeSize)\n  dup1\n  bytecodeSize\n  dup4\n  codecopy\n  dup2\n  dup2\n  add\n  0x40\n  mstore\n  dup2\n  add\n  swap1\n  tag_2\n  swap2\n  swap1\n  tag_3\n  jump\t// in\ntag_2:\n    /* \"contracts/CrowFunding.sol\":287:299  _projectName */\n  dup2\n    /* \"contracts/CrowFunding.sol\":273:284  projectName */\n  0x00\n    /* \"contracts/CrowFunding.sol\":273:299  projectName = _projectName */\n  swap1\n  dup2\n  tag_6\n  swap2\n  swap1\n  tag_7\n  jump\t// in\ntag_6:\n  pop\n    /* \"contracts/CrowFunding.sol\":321:330  _isActive */\n  dup1\n    /* \"contracts/CrowFunding.sol\":310:318  isActive */\n  0x01\n  0x00\n    /* \"contracts/CrowFunding.sol\":310:330  isActive = _isActive */\n  0x0100\n  exp\n  dup2\n  sload\n  dup2\n  0xff\n  mul\n  not\n  and\n  swap1\n  dup4\n  iszero\n  iszero\n  mul\n  or\n  swap1\n  sstore\n  pop\n    /* \"contracts/CrowFunding.sol\":368:378  msg.sender */\n  caller\n    /* \"contracts/CrowFunding.sol\":341:357  mainOwnerAddress */\n  0x01\n  dup1\n    /* \"contracts/CrowFunding.sol\":341:379  mainOwnerAddress = payable(msg.sender) */\n  0x0100\n  exp\n  dup2\n  sload\n  dup2\n  0xffffffffffffffffffffffffffffffffffffffff\n  mul\n  not\n  and\n  swap1\n  dup4\n  0xffffffffffffffffffffffffffffffffffffffff\n  and\n  mul\n  or\n  swap1\n  sstore\n  pop\n    /* \"contracts/CrowFunding.sol\":206:387  constructor(string memory _projectName, bool _isActive) {... */\n  pop\n  pop\n    /* \"contracts/CrowFunding.sol\":70:1234  contract CrowdFunding {... */\n  jump(tag_8)\n    /* \"#utility.yul\":7:82   */\ntag_9:\n    /* \"#utility.yul\":40:46   */\n  0x00\n    /* \"#utility.yul\":73:75   */\n  0x40\n    /* \"#utility.yul\":67:76   */\n  mload\n    /* \"#utility.yul\":57:76   */\n  swap1\n  pop\n    /* \"#utility.yul\":7:82   */\n  swap1\n  jump\t// out\n    /* \"#utility.yul\":88:205   */\ntag_10:\n    /* \"#utility.yul\":197:198   */\n  0x00\n    /* \"#utility.yul\":194:195   */\n  dup1\n    /* \"#utility.yul\":187:199   */\n  revert\n    /* \"#utility.yul\":211:328   */\ntag_11:\n    /* \"#utility.yul\":320:321   */\n  0x00\n    /* \"#utility.yul\":317:318   */\n  dup1\n    /* \"#utility.yul\":310:322   */\n  revert\n    /* \"#utility.yul\":334:451   */\ntag_12:\n    /* \"#utility.yul\":443:444   */\n  0x00\n    /* \"#utility.yul\":440:441   */\n  dup1\n    /* \"#utility.yul\":433:445   */\n  revert\n    /* \"#utility.yul\":457:574   */\ntag_13:\n    /* \"#utility.yul\":566:567   */\n  0x00\n    /* \"#utility.yul\":563:564   */\n  dup1\n    /* \"#utility.yul\":556:568   */\n  revert\n    /* \"#utility.yul\":580:682   */\ntag_14:\n    /* \"#utility.yul\":621:627   */\n  0x00\n    /* \"#utility.yul\":672:674   */\n  0x1f\n    /* \"#utility.yul\":668:675   */\n  not\n    /* \"#utility.yul\":663:665   */\n  0x1f\n    /* \"#utility.yul\":656:661   */\n  dup4\n    /* \"#utility.yul\":652:666   */\n  add\n    /* \"#utility.yul\":648:676   */\n  and\n    /* \"#utility.yul\":638:676   */\n  swap1\n  pop\n    /* \"#utility.yul\":580:682   */\n  swap2\n  swap1\n  pop\n  jump\t// out\n    /* \"#utility.yul\":688:868   */\ntag_15:\n    /* \"#utility.yul\":736:813   */\n  0x4e487b7100000000000000000000000000000000000000000000000000000000\n    /* \"#utility.yul\":733:734   */\n  0x00\n    /* \"#utility.yul\":726:814   */\n  mstore\n    /* \"#utility.yul\":833:837   */\n  0x41\n    /* \"#utility.yul\":830:831   */\n  0x04\n    /* \"#utility.yul\":823:838   */\n  mstore\n    /* \"#utility.yul\":857:861   */\n  0x24\n    /* \"#utility.yul\":854:855   */\n  0x00\n    /* \"#utility.yul\":847:862   */\n  revert\n    /* \"#utility.yul\":874:1155   */\ntag_16:\n    /* \"#utility.yul\":957:984   */\n  tag_53\n    /* \"#utility.yul\":979:983   */\n  dup3\n    /* \"#utility.yul\":957:984   */\n  tag_14\n  jump\t// in\ntag_53:\n    /* \"#utility.yul\":949:955   */\n  dup2\n    /* \"#utility.yul\":945:985   */\n  add\n    /* \"#utility.yul\":1087:1093   */\n  dup2\n    /* \"#utility.yul\":1075:1085   */\n  dup2\n    /* \"#utility.yul\":1072:1094   */\n  lt\n    /* \"#utility.yul\":1051:1069   */\n  0xffffffffffffffff\n    /* \"#utility.yul\":1039:1049   */\n  dup3\n    /* \"#utility.yul\":1036:1070   */\n  gt\n    /* \"#utility.yul\":1033:1095   */\n  or\n    /* \"#utility.yul\":1030:1118   */\n  iszero\n  tag_54\n  jumpi\n    /* \"#utility.yul\":1098:1116   */\n  tag_55\n  tag_15\n  jump\t// in\ntag_55:\n    /* \"#utility.yul\":1030:1118   */\ntag_54:\n    /* \"#utility.yul\":1138:1148   */\n  dup1\n    /* \"#utility.yul\":1134:1136   */\n  0x40\n    /* \"#utility.yul\":1127:1149   */\n  mstore\n    /* \"#utility.yul\":917:1155   */\n  pop\n    /* \"#utility.yul\":874:1155   */\n  pop\n  pop\n  jump\t// out\n    /* \"#utility.yul\":1161:1290   */\ntag_17:\n    /* \"#utility.yul\":1195:1201   */\n  0x00\n    /* \"#utility.yul\":1222:1242   */\n  tag_57\n  tag_9\n  jump\t// in\ntag_57:\n    /* \"#utility.yul\":1212:1242   */\n  swap1\n  pop\n    /* \"#utility.yul\":1251:1284   */\n  tag_58\n    /* \"#utility.yul\":1279:1283   */\n  dup3\n    /* \"#utility.yul\":1271:1277   */\n  dup3\n    /* \"#utility.yul\":1251:1284   */\n  tag_16\n  jump\t// in\ntag_58:\n    /* \"#utility.yul\":1161:1290   */\n  swap2\n  swap1\n  pop\n  jump\t// out\n    /* \"#utility.yul\":1296:1604   */\ntag_18:\n    /* \"#utility.yul\":1358:1362   */\n  0x00\n    /* \"#utility.yul\":1448:1466   */\n  0xffffffffffffffff\n    /* \"#utility.yul\":1440:1446   */\n  dup3\n    /* \"#utility.yul\":1437:1467   */\n  gt\n    /* \"#utility.yul\":1434:1490   */\n  iszero\n  tag_60\n  jumpi\n    /* \"#utility.yul\":1470:1488   */\n  tag_61\n  tag_15\n  jump\t// in\ntag_61:\n    /* \"#utility.yul\":1434:1490   */\ntag_60:\n    /* \"#utility.yul\":1508:1537   */\n  tag_62\n    /* \"#utility.yul\":1530:1536   */\n  dup3\n    /* \"#utility.yul\":1508:1537   */\n  tag_14\n  jump\t// in\ntag_62:\n    /* \"#utility.yul\":1500:1537   */\n  swap1\n  pop\n    /* \"#utility.yul\":1592:1596   */\n  0x20\n    /* \"#utility.yul\":1586:1590   */\n  dup2\n    /* \"#utility.yul\":1582:1597   */\n  add\n    /* \"#utility.yul\":1574:1597   */\n  swap1\n  pop\n    /* \"#utility.yul\":1296:1604   */\n  swap2\n  swap1\n  pop\n  jump\t// out\n    /* \"#utility.yul\":1610:1856   */\ntag_19:\n    /* \"#utility.yul\":1691:1692   */\n  0x00\n    /* \"#utility.yul\":1701:1814   */\ntag_64:\n    /* \"#utility.yul\":1715:1721   */\n  dup4\n    /* \"#utility.yul\":1712:1713   */\n  dup2\n    /* \"#utility.yul\":1709:1722   */\n  lt\n    /* \"#utility.yul\":1701:1814   */\n  iszero\n  tag_66\n  jumpi\n    /* \"#utility.yul\":1800:1801   */\n  dup1\n    /* \"#utility.yul\":1795:1798   */\n  dup3\n    /* \"#utility.yul\":1791:1802   */\n  add\n    /* \"#utility.yul\":1785:1803   */\n  mload\n    /* \"#utility.yul\":1781:1782   */\n  dup2\n    /* \"#utility.yul\":1776:1779   */\n  dup5\n    /* \"#utility.yul\":1772:1783   */\n  add\n    /* \"#utility.yul\":1765:1804   */\n  mstore\n    /* \"#utility.yul\":1737:1739   */\n  0x20\n    /* \"#utility.yul\":1734:1735   */\n  dup2\n    /* \"#utility.yul\":1730:1740   */\n  add\n    /* \"#utility.yul\":1725:1740   */\n  swap1\n  pop\n    /* \"#utility.yul\":1701:1814   */\n  jump(tag_64)\ntag_66:\n    /* \"#utility.yul\":1848:1849   */\n  0x00\n    /* \"#utility.yul\":1839:1845   */\n  dup5\n    /* \"#utility.yul\":1834:1837   */\n  dup5\n    /* \"#utility.yul\":1830:1846   */\n  add\n    /* \"#utility.yul\":1823:1850   */\n  mstore\n    /* \"#utility.yul\":1672:1856   */\n  pop\n    /* \"#utility.yul\":1610:1856   */\n  pop\n  pop\n  pop\n  jump\t// out\n    /* \"#utility.yul\":1862:2296   */\ntag_20:\n    /* \"#utility.yul\":1951:1956   */\n  0x00\n    /* \"#utility.yul\":1976:2042   */\n  tag_68\n    /* \"#utility.yul\":1992:2041   */\n  tag_69\n    /* \"#utility.yul\":2034:2040   */\n  dup5\n    /* \"#utility.yul\":1992:2041   */\n  tag_18\n  jump\t// in\ntag_69:\n    /* \"#utility.yul\":1976:2042   */\n  tag_17\n  jump\t// in\ntag_68:\n    /* \"#utility.yul\":1967:2042   */\n  swap1\n  pop\n    /* \"#utility.yul\":2065:2071   */\n  dup3\n    /* \"#utility.yul\":2058:2063   */\n  dup2\n    /* \"#utility.yul\":2051:2072   */\n  mstore\n    /* \"#utility.yul\":2103:2107   */\n  0x20\n    /* \"#utility.yul\":2096:2101   */\n  dup2\n    /* \"#utility.yul\":2092:2108   */\n  add\n    /* \"#utility.yul\":2141:2144   */\n  dup5\n    /* \"#utility.yul\":2132:2138   */\n  dup5\n    /* \"#utility.yul\":2127:2130   */\n  dup5\n    /* \"#utility.yul\":2123:2139   */\n  add\n    /* \"#utility.yul\":2120:2145   */\n  gt\n    /* \"#utility.yul\":2117:2229   */\n  iszero\n  tag_70\n  jumpi\n    /* \"#utility.yul\":2148:2227   */\n  tag_71\n  tag_13\n  jump\t// in\ntag_71:\n    /* \"#utility.yul\":2117:2229   */\ntag_70:\n    /* \"#utility.yul\":2238:2290   */\n  tag_72\n    /* \"#utility.yul\":2283:2289   */\n  dup5\n    /* \"#utility.yul\":2278:2281   */\n  dup3\n    /* \"#utility.yul\":2273:2276   */\n  dup6\n    /* \"#utility.yul\":2238:2290   */\n  tag_19\n  jump\t// in\ntag_72:\n    /* \"#utility.yul\":1957:2296   */\n  pop\n    /* \"#utility.yul\":1862:2296   */\n  swap4\n  swap3\n  pop\n  pop\n  pop\n  jump\t// out\n    /* \"#utility.yul\":2316:2671   */\ntag_21:\n    /* \"#utility.yul\":2383:2388   */\n  0x00\n    /* \"#utility.yul\":2432:2435   */\n  dup3\n    /* \"#utility.yul\":2425:2429   */\n  0x1f\n    /* \"#utility.yul\":2417:2423   */\n  dup4\n    /* \"#utility.yul\":2413:2430   */\n  add\n    /* \"#utility.yul\":2409:2436   */\n  slt\n    /* \"#utility.yul\":2399:2521   */\n  tag_74\n  jumpi\n    /* \"#utility.yul\":2440:2519   */\n  tag_75\n  tag_12\n  jump\t// in\ntag_75:\n    /* \"#utility.yul\":2399:2521   */\ntag_74:\n    /* \"#utility.yul\":2550:2556   */\n  dup2\n    /* \"#utility.yul\":2544:2557   */\n  mload\n    /* \"#utility.yul\":2575:2665   */\n  tag_76\n    /* \"#utility.yul\":2661:2664   */\n  dup5\n    /* \"#utility.yul\":2653:2659   */\n  dup3\n    /* \"#utility.yul\":2646:2650   */\n  0x20\n    /* \"#utility.yul\":2638:2644   */\n  dup7\n    /* \"#utility.yul\":2634:2651   */\n  add\n    /* \"#utility.yul\":2575:2665   */\n  tag_20\n  jump\t// in\ntag_76:\n    /* \"#utility.yul\":2566:2665   */\n  swap2\n  pop\n    /* \"#utility.yul\":2389:2671   */\n  pop\n    /* \"#utility.yul\":2316:2671   */\n  swap3\n  swap2\n  pop\n  pop\n  jump\t// out\n    /* \"#utility.yul\":2677:2767   */\ntag_22:\n    /* \"#utility.yul\":2711:2718   */\n  0x00\n    /* \"#utility.yul\":2754:2759   */\n  dup2\n    /* \"#utility.yul\":2747:2760   */\n  iszero\n    /* \"#utility.yul\":2740:2761   */\n  iszero\n    /* \"#utility.yul\":2729:2761   */\n  swap1\n  pop\n    /* \"#utility.yul\":2677:2767   */\n  swap2\n  swap1\n  pop\n  jump\t// out\n    /* \"#utility.yul\":2773:2889   */\ntag_23:\n    /* \"#utility.yul\":2843:2864   */\n  tag_79\n    /* \"#utility.yul\":2858:2863   */\n  dup2\n    /* \"#utility.yul\":2843:2864   */\n  tag_22\n  jump\t// in\ntag_79:\n    /* \"#utility.yul\":2836:2841   */\n  dup2\n    /* \"#utility.yul\":2833:2865   */\n  eq\n    /* \"#utility.yul\":2823:2883   */\n  tag_80\n  jumpi\n    /* \"#utility.yul\":2879:2880   */\n  0x00\n    /* \"#utility.yul\":2876:2877   */\n  dup1\n    /* \"#utility.yul\":2869:2881   */\n  revert\n    /* \"#utility.yul\":2823:2883   */\ntag_80:\n    /* \"#utility.yul\":2773:2889   */\n  pop\n  jump\t// out\n    /* \"#utility.yul\":2895:3032   */\ntag_24:\n    /* \"#utility.yul\":2949:2954   */\n  0x00\n    /* \"#utility.yul\":2980:2986   */\n  dup2\n    /* \"#utility.yul\":2974:2987   */\n  mload\n    /* \"#utility.yul\":2965:2987   */\n  swap1\n  pop\n    /* \"#utility.yul\":2996:3026   */\n  tag_82\n    /* \"#utility.yul\":3020:3025   */\n  dup2\n    /* \"#utility.yul\":2996:3026   */\n  tag_23\n  jump\t// in\ntag_82:\n    /* \"#utility.yul\":2895:3032   */\n  swap3\n  swap2\n  pop\n  pop\n  jump\t// out\n    /* \"#utility.yul\":3038:3712   */\ntag_3:\n    /* \"#utility.yul\":3124:3130   */\n  0x00\n    /* \"#utility.yul\":3132:3138   */\n  dup1\n    /* \"#utility.yul\":3181:3183   */\n  0x40\n    /* \"#utility.yul\":3169:3178   */\n  dup4\n    /* \"#utility.yul\":3160:3167   */\n  dup6\n    /* \"#utility.yul\":3156:3179   */\n  sub\n    /* \"#utility.yul\":3152:3184   */\n  slt\n    /* \"#utility.yul\":3149:3268   */\n  iszero\n  tag_84\n  jumpi\n    /* \"#utility.yul\":3187:3266   */\n  tag_85\n  tag_10\n  jump\t// in\ntag_85:\n    /* \"#utility.yul\":3149:3268   */\ntag_84:\n    /* \"#utility.yul\":3328:3329   */\n  0x00\n    /* \"#utility.yul\":3317:3326   */\n  dup4\n    /* \"#utility.yul\":3313:3330   */\n  add\n    /* \"#utility.yul\":3307:3331   */\n  mload\n    /* \"#utility.yul\":3358:3376   */\n  0xffffffffffffffff\n    /* \"#utility.yul\":3350:3356   */\n  dup2\n    /* \"#utility.yul\":3347:3377   */\n  gt\n    /* \"#utility.yul\":3344:3461   */\n  iszero\n  tag_86\n  jumpi\n    /* \"#utility.yul\":3380:3459   */\n  tag_87\n  tag_11\n  jump\t// in\ntag_87:\n    /* \"#utility.yul\":3344:3461   */\ntag_86:\n    /* \"#utility.yul\":3485:3559   */\n  tag_88\n    /* \"#utility.yul\":3551:3558   */\n  dup6\n    /* \"#utility.yul\":3542:3548   */\n  dup3\n    /* \"#utility.yul\":3531:3540   */\n  dup7\n    /* \"#utility.yul\":3527:3549   */\n  add\n    /* \"#utility.yul\":3485:3559   */\n  tag_21\n  jump\t// in\ntag_88:\n    /* \"#utility.yul\":3475:3559   */\n  swap3\n  pop\n    /* \"#utility.yul\":3278:3569   */\n  pop\n    /* \"#utility.yul\":3608:3610   */\n  0x20\n    /* \"#utility.yul\":3634:3695   */\n  tag_89\n    /* \"#utility.yul\":3687:3694   */\n  dup6\n    /* \"#utility.yul\":3678:3684   */\n  dup3\n    /* \"#utility.yul\":3667:3676   */\n  dup7\n    /* \"#utility.yul\":3663:3685   */\n  add\n    /* \"#utility.yul\":3634:3695   */\n  tag_24\n  jump\t// in\ntag_89:\n    /* \"#utility.yul\":3624:3695   */\n  swap2\n  pop\n    /* \"#utility.yul\":3579:3705   */\n  pop\n    /* \"#utility.yul\":3038:3712   */\n  swap3\n  pop\n  swap3\n  swap1\n  pop\n  jump\t// out\n    /* \"#utility.yul\":3718:3817   */\ntag_25:\n    /* \"#utility.yul\":3770:3776   */\n  0x00\n    /* \"#utility.yul\":3804:3809   */\n  dup2\n    /* \"#utility.yul\":3798:3810   */\n  mload\n    /* \"#utility.yul\":3788:3810   */\n  swap1\n  pop\n    /* \"#utility.yul\":3718:3817   */\n  swap2\n  swap1\n  pop\n  jump\t// out\n    /* \"#utility.yul\":3823:4003   */\ntag_26:\n    /* \"#utility.yul\":3871:3948   */\n  0x4e487b7100000000000000000000000000000000000000000000000000000000\n    /* \"#utility.yul\":3868:3869   */\n  0x00\n    /* \"#utility.yul\":3861:3949   */\n  mstore\n    /* \"#utility.yul\":3968:3972   */\n  0x22\n    /* \"#utility.yul\":3965:3966   */\n  0x04\n    /* \"#utility.yul\":3958:3973   */\n  mstore\n    /* \"#utility.yul\":3992:3996   */\n  0x24\n    /* \"#utility.yul\":3989:3990   */\n  0x00\n    /* \"#utility.yul\":3982:3997   */\n  revert\n    /* \"#utility.yul\":4009:4329   */\ntag_27:\n    /* \"#utility.yul\":4053:4059   */\n  0x00\n    /* \"#utility.yul\":4090:4091   */\n  0x02\n    /* \"#utility.yul\":4084:4088   */\n  dup3\n    /* \"#utility.yul\":4080:4092   */\n  div\n    /* \"#utility.yul\":4070:4092   */\n  swap1\n  pop\n    /* \"#utility.yul\":4137:4138   */\n  0x01\n    /* \"#utility.yul\":4131:4135   */\n  dup3\n    /* \"#utility.yul\":4127:4139   */\n  and\n    /* \"#utility.yul\":4158:4176   */\n  dup1\n    /* \"#utility.yul\":4148:4229   */\n  tag_93\n  jumpi\n    /* \"#utility.yul\":4214:4218   */\n  0x7f\n    /* \"#utility.yul\":4206:4212   */\n  dup3\n    /* \"#utility.yul\":4202:4219   */\n  and\n    /* \"#utility.yul\":4192:4219   */\n  swap2\n  pop\n    /* \"#utility.yul\":4148:4229   */\ntag_93:\n    /* \"#utility.yul\":4276:4278   */\n  0x20\n    /* \"#utility.yul\":4268:4274   */\n  dup3\n    /* \"#utility.yul\":4265:4279   */\n  lt\n    /* \"#utility.yul\":4245:4263   */\n  dup2\n    /* \"#utility.yul\":4242:4280   */\n  sub\n    /* \"#utility.yul\":4239:4323   */\n  tag_94\n  jumpi\n    /* \"#utility.yul\":4295:4313   */\n  tag_95\n  tag_26\n  jump\t// in\ntag_95:\n    /* \"#utility.yul\":4239:4323   */\ntag_94:\n    /* \"#utility.yul\":4060:4329   */\n  pop\n    /* \"#utility.yul\":4009:4329   */\n  swap2\n  swap1\n  pop\n  jump\t// out\n    /* \"#utility.yul\":4335:4476   */\ntag_28:\n    /* \"#utility.yul\":4384:4388   */\n  0x00\n    /* \"#utility.yul\":4407:4410   */\n  dup2\n    /* \"#utility.yul\":4399:4410   */\n  swap1\n  pop\n    /* \"#utility.yul\":4430:4433   */\n  dup2\n    /* \"#utility.yul\":4427:4428   */\n  0x00\n    /* \"#utility.yul\":4420:4434   */\n  mstore\n    /* \"#utility.yul\":4464:4468   */\n  0x20\n    /* \"#utility.yul\":4461:4462   */\n  0x00\n    /* \"#utility.yul\":4451:4469   */\n  keccak256\n    /* \"#utility.yul\":4443:4469   */\n  swap1\n  pop\n    /* \"#utility.yul\":4335:4476   */\n  swap2\n  swap1\n  pop\n  jump\t// out\n    /* \"#utility.yul\":4482:4575   */\ntag_29:\n    /* \"#utility.yul\":4519:4525   */\n  0x00\n    /* \"#utility.yul\":4566:4568   */\n  0x20\n    /* \"#utility.yul\":4561:4563   */\n  0x1f\n    /* \"#utility.yul\":4554:4559   */\n  dup4\n    /* \"#utility.yul\":4550:4564   */\n  add\n    /* \"#utility.yul\":4546:4569   */\n  div\n    /* \"#utility.yul\":4536:4569   */\n  swap1\n  pop\n    /* \"#utility.yul\":4482:4575   */\n  swap2\n  swap1\n  pop\n  jump\t// out\n    /* \"#utility.yul\":4581:4688   */\ntag_30:\n    /* \"#utility.yul\":4625:4633   */\n  0x00\n    /* \"#utility.yul\":4675:4680   */\n  dup3\n    /* \"#utility.yul\":4669:4673   */\n  dup3\n    /* \"#utility.yul\":4665:4681   */\n  shl\n    /* \"#utility.yul\":4644:4681   */\n  swap1\n  pop\n    /* \"#utility.yul\":4581:4688   */\n  swap3\n  swap2\n  pop\n  pop\n  jump\t// out\n    /* \"#utility.yul\":4694:5087   */\ntag_31:\n    /* \"#utility.yul\":4763:4769   */\n  0x00\n    /* \"#utility.yul\":4813:4814   */\n  0x08\n    /* \"#utility.yul\":4801:4811   */\n  dup4\n    /* \"#utility.yul\":4797:4815   */\n  mul\n    /* \"#utility.yul\":4836:4933   */\n  tag_100\n    /* \"#utility.yul\":4866:4932   */\n  0xffffffffffffffffffffffffffffffffffffffffffffffffffffffffffffffff\n    /* \"#utility.yul\":4855:4864   */\n  dup3\n    /* \"#utility.yul\":4836:4933   */\n  tag_30\n  jump\t// in\ntag_100:\n    /* \"#utility.yul\":4954:4993   */\n  tag_101\n    /* \"#utility.yul\":4984:4992   */\n  dup7\n    /* \"#utility.yul\":4973:4982   */\n  dup4\n    /* \"#utility.yul\":4954:4993   */\n  tag_30\n  jump\t// in\ntag_101:\n    /* \"#utility.yul\":4942:4993   */\n  swap6\n  pop\n    /* \"#utility.yul\":5026:5030   */\n  dup1\n    /* \"#utility.yul\":5022:5031   */\n  not\n    /* \"#utility.yul\":5015:5020   */\n  dup5\n    /* \"#utility.yul\":5011:5032   */\n  and\n    /* \"#utility.yul\":5002:5032   */\n  swap4\n  pop\n    /* \"#utility.yul\":5075:5079   */\n  dup1\n    /* \"#utility.yul\":5065:5073   */\n  dup7\n    /* \"#utility.yul\":5061:5080   */\n  and\n    /* \"#utility.yul\":5054:5059   */\n  dup5\n    /* \"#utility.yul\":5051:5081   */\n  or\n    /* \"#utility.yul\":5041:5081   */\n  swap3\n  pop\n    /* \"#utility.yul\":4770:5087   */\n  pop\n  pop\n    /* \"#utility.yul\":4694:5087   */\n  swap4\n  swap3\n  pop\n  pop\n  pop\n  jump\t// out\n    /* \"#utility.yul\":5093:5170   */\ntag_32:\n    /* \"#utility.yul\":5130:5137   */\n  0x00\n    /* \"#utility.yul\":5159:5164   */\n  dup2\n    /* \"#utility.yul\":5148:5164   */\n  swap1\n  pop\n    /* \"#utility.yul\":5093:5170   */\n  swap2\n  swap1\n  pop\n  jump\t// out\n    /* \"#utility.yul\":5176:5236   */\ntag_33:\n    /* \"#utility.yul\":5204:5207   */\n  0x00\n    /* \"#utility.yul\":5225:5230   */\n  dup2\n    /* \"#utility.yul\":5218:5230   */\n  swap1\n  pop\n    /* \"#utility.yul\":5176:5236   */\n  swap2\n  swap1\n  pop\n  jump\t// out\n    /* \"#utility.yul\":5242:5384   */\ntag_34:\n    /* \"#utility.yul\":5292:5301   */\n  0x00\n    /* \"#utility.yul\":5325:5378   */\n  tag_105\n    /* \"#utility.yul\":5343:5377   */\n  tag_106\n    /* \"#utility.yul\":5352:5376   */\n  tag_107\n    /* \"#utility.yul\":5370:5375   */\n  dup5\n    /* \"#utility.yul\":5352:5376   */\n  tag_32\n  jump\t// in\ntag_107:\n    /* \"#utility.yul\":5343:5377   */\n  tag_33\n  jump\t// in\ntag_106:\n    /* \"#utility.yul\":5325:5378   */\n  tag_32\n  jump\t// in\ntag_105:\n    /* \"#utility.yul\":5312:5378   */\n  swap1\n  pop\n    /* \"#utility.yul\":5242:5384   */\n  swap2\n  swap1\n  pop\n  jump\t// out\n    /* \"#utility.yul\":5390:5465   */\ntag_35:\n    /* \"#utility.yul\":5433:5436   */\n  0x00\n    /* \"#utility.yul\":5454:5459   */\n  dup2\n    /* \"#utility.yul\":5447:5459   */\n  swap1\n  pop\n    /* \"#utility.yul\":5390:5465   */\n  swap2\n  swap1\n  pop\n  jump\t// out\n    /* \"#utility.yul\":5471:5740   */\ntag_36:\n    /* \"#utility.yul\":5581:5620   */\n  tag_110\n    /* \"#utility.yul\":5612:5619   */\n  dup4\n    /* \"#utility.yul\":5581:5620   */\n  tag_34\n  jump\t// in\ntag_110:\n    /* \"#utility.yul\":5642:5733   */\n  tag_111\n    /* \"#utility.yul\":5691:5732   */\n  tag_112\n    /* \"#utility.yul\":5715:5731   */\n  dup3\n    /* \"#utility.yul\":5691:5732   */\n  tag_35\n  jump\t// in\ntag_112:\n    /* \"#utility.yul\":5683:5689   */\n  dup5\n    /* \"#utility.yul\":5676:5680   */\n  dup5\n    /* \"#utility.yul\":5670:5681   */\n  sload\n    /* \"#utility.yul\":5642:5733   */\n  tag_31\n  jump\t// in\ntag_111:\n    /* \"#utility.yul\":5636:5640   */\n  dup3\n    /* \"#utility.yul\":5629:5734   */\n  sstore\n    /* \"#utility.yul\":5547:5740   */\n  pop\n    /* \"#utility.yul\":5471:5740   */\n  pop\n  pop\n  pop\n  jump\t// out\n    /* \"#utility.yul\":5746:5819   */\ntag_37:\n    /* \"#utility.yul\":5791:5794   */\n  0x00\n    /* \"#utility.yul\":5746:5819   */\n  swap1\n  jump\t// out\n    /* \"#utility.yul\":5825:6014   */\ntag_38:\n    /* \"#utility.yul\":5902:5934   */\n  tag_115\n  tag_37\n  jump\t// in\ntag_115:\n    /* \"#utility.yul\":5943:6008   */\n  tag_116\n    /* \"#utility.yul\":6001:6007   */\n  dup2\n    /* \"#utility.yul\":5993:5999   */\n  dup5\n    /* \"#utility.yul\":5987:5991   */\n  dup5\n    /* \"#utility.yul\":5943:6008   */\n  tag_36\n  jump\t// in\ntag_116:\n    /* \"#utility.yul\":5878:6014   */\n  pop\n    /* \"#utility.yul\":5825:6014   */\n  pop\n  pop\n  jump\t// out\n    /* \"#utility.yul\":6020:6206   */\ntag_39:\n    /* \"#utility.yul\":6080:6200   */\ntag_118:\n    /* \"#utility.yul\":6097:6100   */\n  dup2\n    /* \"#utility.yul\":6090:6095   */\n  dup2\n    /* \"#utility.yul\":6087:6101   */\n  lt\n    /* \"#utility.yul\":6080:6200   */\n  iszero\n  tag_120\n  jumpi\n    /* \"#utility.yul\":6151:6190   */\n  tag_121\n    /* \"#utility.yul\":6188:6189   */\n  0x00\n    /* \"#utility.yul\":6181:6186   */\n  dup3\n    /* \"#utility.yul\":6151:6190   */\n  tag_38\n  jump\t// in\ntag_121:\n    /* \"#utility.yul\":6124:6125   */\n  0x01\n    /* \"#utility.yul\":6117:6122   */\n  dup2\n    /* \"#utility.yul\":6113:6126   */\n  add\n    /* \"#utility.yul\":6104:6126   */\n  swap1\n  pop\n    /* \"#utility.yul\":6080:6200   */\n  jump(tag_118)\ntag_120:\n    /* \"#utility.yul\":6020:6206   */\n  pop\n  pop\n  jump\t// out\n    /* \"#utility.yul\":6212:6755   */\ntag_40:\n    /* \"#utility.yul\":6313:6315   */\n  0x1f\n    /* \"#utility.yul\":6308:6311   */\n  dup3\n    /* \"#utility.yul\":6305:6316   */\n  gt\n    /* \"#utility.yul\":6302:6748   */\n  iszero\n  tag_123\n  jumpi\n    /* \"#utility.yul\":6347:6385   */\n  tag_124\n    /* \"#utility.yul\":6379:6384   */\n  dup2\n    /* \"#utility.yul\":6347:6385   */\n  tag_28\n  jump\t// in\ntag_124:\n    /* \"#utility.yul\":6431:6460   */\n  tag_125\n    /* \"#utility.yul\":6449:6459   */\n  dup5\n    /* \"#utility.yul\":6431:6460   */\n  tag_29\n  jump\t// in\ntag_125:\n    /* \"#utility.yul\":6421:6429   */\n  dup2\n    /* \"#utility.yul\":6417:6461   */\n  add\n    /* \"#utility.yul\":6614:6616   */\n  0x20\n    /* \"#utility.yul\":6602:6612   */\n  dup6\n    /* \"#utility.yul\":6599:6617   */\n  lt\n    /* \"#utility.yul\":6596:6645   */\n  iszero\n  tag_126\n  jumpi\n    /* \"#utility.yul\":6635:6643   */\n  dup2\n    /* \"#utility.yul\":6620:6643   */\n  swap1\n  pop\n    /* \"#utility.yul\":6596:6645   */\ntag_126:\n    /* \"#utility.yul\":6658:6738   */\n  tag_127\n    /* \"#utility.yul\":6714:6736   */\n  tag_128\n    /* \"#utility.yul\":6732:6735   */\n  dup6\n    /* \"#utility.yul\":6714:6736   */\n  tag_29\n  jump\t// in\ntag_128:\n    /* \"#utility.yul\":6704:6712   */\n  dup4\n    /* \"#utility.yul\":6700:6737   */\n  add\n    /* \"#utility.yul\":6687:6698   */\n  dup3\n    /* \"#utility.yul\":6658:6738   */\n  tag_39\n  jump\t// in\ntag_127:\n    /* \"#utility.yul\":6317:6748   */\n  pop\n  pop\n    /* \"#utility.yul\":6302:6748   */\ntag_123:\n    /* \"#utility.yul\":6212:6755   */\n  pop\n  pop\n  pop\n  jump\t// out\n    /* \"#utility.yul\":6761:6878   */\ntag_41:\n    /* \"#utility.yul\":6815:6823   */\n  0x00\n    /* \"#utility.yul\":6865:6870   */\n  dup3\n    /* \"#utility.yul\":6859:6863   */\n  dup3\n    /* \"#utility.yul\":6855:6871   */\n  shr\n    /* \"#utility.yul\":6834:6871   */\n  swap1\n  pop\n    /* \"#utility.yul\":6761:6878   */\n  swap3\n  swap2\n  pop\n  pop\n  jump\t// out\n    /* \"#utility.yul\":6884:7053   */\ntag_42:\n    /* \"#utility.yul\":6928:6934   */\n  0x00\n    /* \"#utility.yul\":6961:7012   */\n  tag_131\n    /* \"#utility.yul\":7009:7010   */\n  0x00\n    /* \"#utility.yul\":7005:7011   */\n  not\n    /* \"#utility.yul\":6997:7002   */\n  dup5\n    /* \"#utility.yul\":6994:6995   */\n  0x08\n    /* \"#utility.yul\":6990:7003   */\n  mul\n    /* \"#utility.yul\":6961:7012   */\n  tag_41\n  jump\t// in\ntag_131:\n    /* \"#utility.yul\":6957:7013   */\n  not\n    /* \"#utility.yul\":7042:7046   */\n  dup1\n    /* \"#utility.yul\":7036:7040   */\n  dup4\n    /* \"#utility.yul\":7032:7047   */\n  and\n    /* \"#utility.yul\":7022:7047   */\n  swap2\n  pop\n    /* \"#utility.yul\":6935:7053   */\n  pop\n    /* \"#utility.yul\":6884:7053   */\n  swap3\n  swap2\n  pop\n  pop\n  jump\t// out\n    /* \"#utility.yul\":7058:7353   */\ntag_43:\n    /* \"#utility.yul\":7134:7138   */\n  0x00\n    /* \"#utility.yul\":7280:7309   */\n  tag_133\n    /* \"#utility.yul\":7305:7308   */\n  dup4\n    /* \"#utility.yul\":7299:7303   */\n  dup4\n    /* \"#utility.yul\":7280:7309   */\n  tag_42\n  jump\t// in\ntag_133:\n    /* \"#utility.yul\":7272:7309   */\n  swap2\n  pop\n    /* \"#utility.yul\":7342:7345   */\n  dup3\n    /* \"#utility.yul\":7339:7340   */\n  0x02\n    /* \"#utility.yul\":7335:7346   */\n  mul\n    /* \"#utility.yul\":7329:7333   */\n  dup3\n    /* \"#utility.yul\":7326:7347   */\n  or\n    /* \"#utility.yul\":7318:7347   */\n  swap1\n  pop\n    /* \"#utility.yul\":7058:7353   */\n  swap3\n  swap2\n  pop\n  pop\n  jump\t// out\n    /* \"#utility.yul\":7358:8753   */\ntag_7:\n    /* \"#utility.yul\":7475:7512   */\n  tag_135\n    /* \"#utility.yul\":7508:7511   */\n  dup3\n    /* \"#utility.yul\":7475:7512   */\n  tag_25\n  jump\t// in\ntag_135:\n    /* \"#utility.yul\":7577:7595   */\n  0xffffffffffffffff\n    /* \"#utility.yul\":7569:7575   */\n  dup2\n    /* \"#utility.yul\":7566:7596   */\n  gt\n    /* \"#utility.yul\":7563:7619   */\n  iszero\n  tag_136\n  jumpi\n    /* \"#utility.yul\":7599:7617   */\n  tag_137\n  tag_15\n  jump\t// in\ntag_137:\n    /* \"#utility.yul\":7563:7619   */\ntag_136:\n    /* \"#utility.yul\":7643:7681   */\n  tag_138\n    /* \"#utility.yul\":7675:7679   */\n  dup3\n    /* \"#utility.yul\":7669:7680   */\n  sload\n    /* \"#utility.yul\":7643:7681   */\n  tag_27\n  jump\t// in\ntag_138:\n    /* \"#utility.yul\":7728:7795   */\n  tag_139\n    /* \"#utility.yul\":7788:7794   */\n  dup3\n    /* \"#utility.yul\":7780:7786   */\n  dup3\n    /* \"#utility.yul\":7774:7778   */\n  dup6\n    /* \"#utility.yul\":7728:7795   */\n  tag_40\n  jump\t// in\ntag_139:\n    /* \"#utility.yul\":7822:7823   */\n  0x00\n    /* \"#utility.yul\":7846:7850   */\n  0x20\n    /* \"#utility.yul\":7833:7850   */\n  swap1\n  pop\n    /* \"#utility.yul\":7878:7880   */\n  0x1f\n    /* \"#utility.yul\":7870:7876   */\n  dup4\n    /* \"#utility.yul\":7867:7881   */\n  gt\n    /* \"#utility.yul\":7895:7896   */\n  0x01\n    /* \"#utility.yul\":7890:8508   */\n  dup2\n  eq\n  tag_141\n  jumpi\n    /* \"#utility.yul\":8552:8553   */\n  0x00\n    /* \"#utility.yul\":8569:8575   */\n  dup5\n    /* \"#utility.yul\":8566:8643   */\n  iszero\n  tag_142\n  jumpi\n    /* \"#utility.yul\":8618:8627   */\n  dup3\n    /* \"#utility.yul\":8613:8616   */\n  dup8\n    /* \"#utility.yul\":8609:8628   */\n  add\n    /* \"#utility.yul\":8603:8629   */\n  mload\n    /* \"#utility.yul\":8594:8629   */\n  swap1\n  pop\n    /* \"#utility.yul\":8566:8643   */\ntag_142:\n    /* \"#utility.yul\":8669:8736   */\n  tag_143\n    /* \"#utility.yul\":8729:8735   */\n  dup6\n    /* \"#utility.yul\":8722:8727   */\n  dup3\n    /* \"#utility.yul\":8669:8736   */\n  tag_43\n  jump\t// in\ntag_143:\n    /* \"#utility.yul\":8663:8667   */\n  dup7\n    /* \"#utility.yul\":8656:8737   */\n  sstore\n    /* \"#utility.yul\":8525:8747   */\n  pop\n    /* \"#utility.yul\":7860:8747   */\n  jump(tag_140)\n    /* \"#utility.yul\":7890:8508   */\ntag_141:\n    /* \"#utility.yul\":7942:7946   */\n  0x1f\n    /* \"#utility.yul\":7938:7947   */\n  not\n    /* \"#utility.yul\":7930:7936   */\n  dup5\n    /* \"#utility.yul\":7926:7948   */\n  and\n    /* \"#utility.yul\":7976:8013   */\n  tag_144\n    /* \"#utility.yul\":8008:8012   */\n  dup7\n    /* \"#utility.yul\":7976:8013   */\n  tag_28\n  jump\t// in\ntag_144:\n    /* \"#utility.yul\":8035:8036   */\n  0x00\n    /* \"#utility.yul\":8049:8257   */\ntag_145:\n    /* \"#utility.yul\":8063:8070   */\n  dup3\n    /* \"#utility.yul\":8060:8061   */\n  dup2\n    /* \"#utility.yul\":8057:8071   */\n  lt\n    /* \"#utility.yul\":8049:8257   */\n  iszero\n  tag_147\n  jumpi\n    /* \"#utility.yul\":8142:8151   */\n  dup5\n    /* \"#utility.yul\":8137:8140   */\n  dup10\n    /* \"#utility.yul\":8133:8152   */\n  add\n    /* \"#utility.yul\":8127:8153   */\n  mload\n    /* \"#utility.yul\":8119:8125   */\n  dup3\n    /* \"#utility.yul\":8112:8154   */\n  sstore\n    /* \"#utility.yul\":8193:8194   */\n  0x01\n    /* \"#utility.yul\":8185:8191   */\n  dup3\n    /* \"#utility.yul\":8181:8195   */\n  add\n    /* \"#utility.yul\":8171:8195   */\n  swap2\n  pop\n    /* \"#utility.yul\":8240:8242   */\n  0x20\n    /* \"#utility.yul\":8229:8238   */\n  dup6\n    /* \"#utility.yul\":8225:8243   */\n  add\n    /* \"#utility.yul\":8212:8243   */\n  swap5\n  pop\n    /* \"#utility.yul\":8086:8090   */\n  0x20\n    /* \"#utility.yul\":8083:8084   */\n  dup2\n    /* \"#utility.yul\":8079:8091   */\n  add\n    /* \"#utility.yul\":8074:8091   */\n  swap1\n  pop\n    /* \"#utility.yul\":8049:8257   */\n  jump(tag_145)\ntag_147:\n    /* \"#utility.yul\":8285:8291   */\n  dup7\n    /* \"#utility.yul\":8276:8283   */\n  dup4\n    /* \"#utility.yul\":8273:8292   */\n  lt\n    /* \"#utility.yul\":8270:8449   */\n  iszero\n  tag_148\n  jumpi\n    /* \"#utility.yul\":8343:8352   */\n  dup5\n    /* \"#utility.yul\":8338:8341   */\n  dup10\n    /* \"#utility.yul\":8334:8353   */\n  add\n    /* \"#utility.yul\":8328:8354   */\n  mload\n    /* \"#utility.yul\":8386:8434   */\n  tag_149\n    /* \"#utility.yul\":8428:8432   */\n  0x1f\n    /* \"#utility.yul\":8420:8426   */\n  dup10\n    /* \"#utility.yul\":8416:8433   */\n  and\n    /* \"#utility.yul\":8405:8414   */\n  dup3\n    /* \"#utility.yul\":8386:8434   */\n  tag_42\n  jump\t// in\ntag_149:\n    /* \"#utility.yul\":8378:8384   */\n  dup4\n    /* \"#utility.yul\":8371:8435   */\n  sstore\n    /* \"#utility.yul\":8293:8449   */\n  pop\n    /* \"#utility.yul\":8270:8449   */\ntag_148:\n    /* \"#utility.yul\":8495:8496   */\n  0x01\n    /* \"#utility.yul\":8491:8492   */\n  0x02\n    /* \"#utility.yul\":8483:8489   */\n  dup9\n    /* \"#utility.yul\":8479:8493   */\n  mul\n    /* \"#utility.yul\":8475:8497   */\n  add\n    /* \"#utility.yul\":8469:8473   */\n  dup9\n    /* \"#utility.yul\":8462:8498   */\n  sstore\n    /* \"#utility.yul\":7897:8508   */\n  pop\n  pop\n  pop\n    /* \"#utility.yul\":7860:8747   */\ntag_140:\n  pop\n    /* \"#utility.yul\":7450:8753   */\n  pop\n  pop\n  pop\n    /* \"#utility.yul\":7358:8753   */\n  pop\n  pop\n  jump\t// out\n    /* \"contracts/CrowFunding.sol\":70:1234  contract CrowdFunding {... */\ntag_8:\n  dataSize(sub_0)\n  dup1\n  dataOffset(sub_0)\n  0x00\n  codecopy\n  0x00\n  return\nstop\n\nsub_0: assembly {\n        /* \"contracts/CrowFunding.sol\":70:1234  contract CrowdFunding {... */\n      mstore(0x40, 0x80)\n      jumpi(tag_1, lt(calldatasize, 0x04))\n      shr(0xe0, calldataload(0x00))\n      dup1\n      0x12065fe0\n      eq\n      tag_2\n      jumpi\n      dup1\n      0x48c981e2\n      eq\n      tag_3\n      jumpi\n      dup1\n      0x578e2c0c\n      eq\n      tag_4\n      jumpi\n      dup1\n      0x9faf6215\n      eq\n      tag_5\n      jumpi\n      dup1\n      0xb69ef8a8\n      eq\n      tag_6\n      jumpi\n      dup1\n      0xf58754f8\n      eq\n      tag_7\n      jumpi\n    tag_1:\n      0x00\n      dup1\n      revert\n        /* \"contracts/CrowFunding.sol\":719:804  function getBalance() public view returns (uint256) {... */\n    tag_2:\n      callvalue\n      dup1\n      iszero\n      tag_8\n      jumpi\n      0x00\n      dup1\n      revert\n    tag_8:\n      pop\n      tag_9\n      tag_10\n      jump\t// in\n    tag_9:\n      mload(0x40)\n      tag_11\n      swap2\n      swap1\n      tag_12\n      jump\t// in\n    tag_11:\n      mload(0x40)\n      dup1\n      swap2\n      sub\n      swap1\n      return\n        /* \"contracts/CrowFunding.sol\":395:711  function sendEther(address payable receiver) public payable {... */\n    tag_3:\n      tag_13\n      0x04\n      dup1\n      calldatasize\n      sub\n      dup2\n      add\n      swap1\n      tag_14\n      swap2\n      swap1\n      tag_15\n      jump\t// in\n    tag_14:\n      tag_16\n      jump\t// in\n    tag_13:\n      stop\n        /* \"contracts/CrowFunding.sol\":1018:1231  function changeProjectName (string memory _newProjectName) public {... */\n    tag_4:\n      callvalue\n      dup1\n      iszero\n      tag_17\n      jumpi\n      0x00\n      dup1\n      revert\n    tag_17:\n      pop\n      tag_18\n      0x04\n      dup1\n      calldatasize\n      sub\n      dup2\n      add\n      swap1\n      tag_19\n      swap2\n      swap1\n      tag_20\n      jump\t// in\n    tag_19:\n      tag_21\n      jump\t// in\n    tag_18:\n      stop\n        /* \"contracts/CrowFunding.sol\":812:911  function getProjectName() public view returns (string memory) {... */\n    tag_5:\n      callvalue\n      dup1\n      iszero\n      tag_22\n      jumpi\n      0x00\n      dup1\n      revert\n    tag_22:\n      pop\n      tag_23\n      tag_24\n      jump\t// in\n    tag_23:\n      mload(0x40)\n      tag_25\n      swap2\n      swap1\n      tag_26\n      jump\t// in\n    tag_25:\n      mload(0x40)\n      dup1\n      swap2\n      sub\n      swap1\n      return\n        /* \"contracts/CrowFunding.sol\":175:197  uint256 public balance */\n    tag_6:\n      callvalue\n      dup1\n      iszero\n      tag_27\n      jumpi\n      0x00\n      dup1\n      revert\n    tag_27:\n      pop\n      tag_28\n      tag_29\n      jump\t// in\n    tag_28:\n      mload(0x40)\n      tag_30\n      swap2\n      swap1\n      tag_12\n      jump\t// in\n    tag_30:\n      mload(0x40)\n      dup1\n      swap2\n      sub\n      swap1\n      return\n        /* \"contracts/CrowFunding.sol\":919:1010  function changeProjectState (bool _newState) public {... */\n    tag_7:\n      callvalue\n      dup1\n      iszero\n      tag_31\n      jumpi\n      0x00\n      dup1\n      revert\n    tag_31:\n      pop\n      tag_32\n      0x04\n      dup1\n      calldatasize\n      sub\n      dup2\n      add\n      swap1\n      tag_33\n      swap2\n      swap1\n      tag_34\n      jump\t// in\n    tag_33:\n      tag_35\n      jump\t// in\n    tag_32:\n      stop\n        /* \"contracts/CrowFunding.sol\":719:804  function getBalance() public view returns (uint256) {... */\n    tag_10:\n        /* \"contracts/CrowFunding.sol\":762:769  uint256 */\n      0x00\n        /* \"contracts/CrowFunding.sol\":789:796  balance */\n      sload(0x02)\n        /* \"contracts/CrowFunding.sol\":782:796  return balance */\n      swap1\n      pop\n        /* \"contracts/CrowFunding.sol\":719:804  function getBalance() public view returns (uint256) {... */\n      swap1\n      jump\t// out\n        /* \"contracts/CrowFunding.sol\":395:711  function sendEther(address payable receiver) public payable {... */\n    tag_16:\n        /* \"contracts/CrowFunding.sol\":486:502  mainOwnerAddress */\n      0x01\n      dup1\n      sload\n      swap1\n      0x0100\n      exp\n      swap1\n      div\n      0xffffffffffffffffffffffffffffffffffffffff\n      and\n        /* \"contracts/CrowFunding.sol\":474:502  receiver != mainOwnerAddress */\n      0xffffffffffffffffffffffffffffffffffffffff\n      and\n        /* \"contracts/CrowFunding.sol\":474:482  receiver */\n      dup2\n        /* \"contracts/CrowFunding.sol\":474:502  receiver != mainOwnerAddress */\n      0xffffffffffffffffffffffffffffffffffffffff\n      and\n      sub\n        /* \"contracts/CrowFunding.sol\":466:542  require(receiver != mainOwnerAddress, \"Que raro mandarte dinero a ti mismo\") */\n      tag_38\n      jumpi\n      mload(0x40)\n      0x08c379a000000000000000000000000000000000000000000000000000000000\n      dup2\n      mstore\n      0x04\n      add\n      tag_39\n      swap1\n      tag_40\n      jump\t// in\n    tag_39:\n      mload(0x40)\n      dup1\n      swap2\n      sub\n      swap1\n      revert\n    tag_38:\n        /* \"contracts/CrowFunding.sol\":561:569  isActive */\n      0x01\n      0x00\n      swap1\n      sload\n      swap1\n      0x0100\n      exp\n      swap1\n      div\n      0xff\n      and\n        /* \"contracts/CrowFunding.sol\":553:633  require(isActive, \"El proyecto ya no esta activo, lo hubieses hecho antes BRO.\") */\n      tag_41\n      jumpi\n      mload(0x40)\n      0x08c379a000000000000000000000000000000000000000000000000000000000\n      dup2\n      mstore\n      0x04\n      add\n      tag_42\n      swap1\n      tag_43\n      jump\t// in\n    tag_42:\n      mload(0x40)\n      dup1\n      swap2\n      sub\n      swap1\n      revert\n    tag_41:\n        /* \"contracts/CrowFunding.sol\":644:652  receiver */\n      dup1\n        /* \"contracts/CrowFunding.sol\":644:661  receiver.transfer */\n      0xffffffffffffffffffffffffffffffffffffffff\n      and\n        /* \"contracts/CrowFunding.sol\":644:672  receiver.transfer(msg.value) */\n      0x08fc\n        /* \"contracts/CrowFunding.sol\":662:671  msg.value */\n      callvalue\n        /* \"contracts/CrowFunding.sol\":644:672  receiver.transfer(msg.value) */\n      swap1\n      dup2\n      iszero\n      mul\n      swap1\n      mload(0x40)\n      0x00\n      mload(0x40)\n      dup1\n      dup4\n      sub\n      dup2\n      dup6\n      dup9\n      dup9\n      call\n      swap4\n      pop\n      pop\n      pop\n      pop\n      iszero\n      dup1\n      iszero\n      tag_45\n      jumpi\n      returndatasize\n      0x00\n      dup1\n      returndatacopy\n      revert(0x00, returndatasize)\n    tag_45:\n      pop\n        /* \"contracts/CrowFunding.sol\":694:703  msg.value */\n      callvalue\n        /* \"contracts/CrowFunding.sol\":683:690  balance */\n      0x02\n      0x00\n        /* \"contracts/CrowFunding.sol\":683:703  balance += msg.value */\n      dup3\n      dup3\n      sload\n      tag_46\n      swap2\n      swap1\n      tag_47\n      jump\t// in\n    tag_46:\n      swap3\n      pop\n      pop\n      dup2\n      swap1\n      sstore\n      pop\n        /* \"contracts/CrowFunding.sol\":395:711  function sendEther(address payable receiver) public payable {... */\n      pop\n      jump\t// out\n        /* \"contracts/CrowFunding.sol\":1018:1231  function changeProjectName (string memory _newProjectName) public {... */\n    tag_21:\n        /* \"contracts/CrowFunding.sol\":1136:1137  3 */\n      0x03\n        /* \"contracts/CrowFunding.sol\":1109:1124  _newProjectName */\n      dup2\n        /* \"contracts/CrowFunding.sol\":1103:1132  bytes(_newProjectName).length */\n      mload\n        /* \"contracts/CrowFunding.sol\":1103:1137  bytes(_newProjectName).length >= 3 */\n      lt\n      iszero\n        /* \"contracts/CrowFunding.sol\":1095:1183  require(bytes(_newProjectName).length >= 3, 'El nombre del proyecto es demasiado corto') */\n      tag_49\n      jumpi\n      mload(0x40)\n      0x08c379a000000000000000000000000000000000000000000000000000000000\n      dup2\n      mstore\n      0x04\n      add\n      tag_50\n      swap1\n      tag_51\n      jump\t// in\n    tag_50:\n      mload(0x40)\n      dup1\n      swap2\n      sub\n      swap1\n      revert\n    tag_49:\n        /* \"contracts/CrowFunding.sol\":1208:1223  _newProjectName */\n      dup1\n        /* \"contracts/CrowFunding.sol\":1194:1205  projectName */\n      0x00\n        /* \"contracts/CrowFunding.sol\":1194:1223  projectName = _newProjectName */\n      swap1\n      dup2\n      tag_52\n      swap2\n      swap1\n      tag_53\n      jump\t// in\n    tag_52:\n      pop\n        /* \"contracts/CrowFunding.sol\":1018:1231  function changeProjectName (string memory _newProjectName) public {... */\n      pop\n      jump\t// out\n        /* \"contracts/CrowFunding.sol\":812:911  function getProjectName() public view returns (string memory) {... */\n    tag_24:\n        /* \"contracts/CrowFunding.sol\":859:872  string memory */\n      0x60\n        /* \"contracts/CrowFunding.sol\":892:903  projectName */\n      0x00\n        /* \"contracts/CrowFunding.sol\":885:903  return projectName */\n      dup1\n      sload\n      tag_55\n      swap1\n      tag_56\n      jump\t// in\n    tag_55:\n      dup1\n      0x1f\n      add\n      0x20\n      dup1\n      swap2\n      div\n      mul\n      0x20\n      add\n      mload(0x40)\n      swap1\n      dup2\n      add\n      0x40\n      mstore\n      dup1\n      swap3\n      swap2\n      swap1\n      dup2\n      dup2\n      mstore\n      0x20\n      add\n      dup3\n      dup1\n      sload\n      tag_57\n      swap1\n      tag_56\n      jump\t// in\n    tag_57:\n      dup1\n      iszero\n      tag_58\n      jumpi\n      dup1\n      0x1f\n      lt\n      tag_59\n      jumpi\n      0x0100\n      dup1\n      dup4\n      sload\n      div\n      mul\n      dup4\n      mstore\n      swap2\n      0x20\n      add\n      swap2\n      jump(tag_58)\n    tag_59:\n      dup3\n      add\n      swap2\n      swap1\n      0x00\n      mstore\n      keccak256(0x00, 0x20)\n      swap1\n    tag_60:\n      dup2\n      sload\n      dup2\n      mstore\n      swap1\n      0x01\n      add\n      swap1\n      0x20\n      add\n      dup1\n      dup4\n      gt\n      tag_60\n      jumpi\n      dup3\n      swap1\n      sub\n      0x1f\n      and\n      dup3\n      add\n      swap2\n    tag_58:\n      pop\n      pop\n      pop\n      pop\n      pop\n      swap1\n      pop\n        /* \"contracts/CrowFunding.sol\":812:911  function getProjectName() public view returns (string memory) {... */\n      swap1\n      jump\t// out\n        /* \"contracts/CrowFunding.sol\":175:197  uint256 public balance */\n    tag_29:\n      sload(0x02)\n      dup2\n      jump\t// out\n        /* \"contracts/CrowFunding.sol\":919:1010  function changeProjectState (bool _newState) public {... */\n    tag_35:\n        /* \"contracts/CrowFunding.sol\":993:1002  _newState */\n      dup1\n        /* \"contracts/CrowFunding.sol\":982:990  isActive */\n      0x01\n      0x00\n        /* \"contracts/CrowFunding.sol\":982:1002  isActive = _newState */\n      0x0100\n      exp\n      dup2\n      sload\n      dup2\n      0xff\n      mul\n      not\n      and\n      swap1\n      dup4\n      iszero\n      iszero\n      mul\n      or\n      swap1\n      sstore\n      pop\n        /* \"contracts/CrowFunding.sol\":919:1010  function changeProjectState (bool _newState) public {... */\n      pop\n      jump\t// out\n        /* \"#utility.yul\":7:84   */\n    tag_62:\n        /* \"#utility.yul\":44:51   */\n      0x00\n        /* \"#utility.yul\":73:78   */\n      dup2\n        /* \"#utility.yul\":62:78   */\n      swap1\n      pop\n        /* \"#utility.yul\":7:84   */\n      swap2\n      swap1\n      pop\n      jump\t// out\n        /* \"#utility.yul\":90:208   */\n    tag_63:\n        /* \"#utility.yul\":177:201   */\n      tag_114\n        /* \"#utility.yul\":195:200   */\n      dup2\n        /* \"#utility.yul\":177:201   */\n      tag_62\n      jump\t// in\n    tag_114:\n        /* \"#utility.yul\":172:175   */\n      dup3\n        /* \"#utility.yul\":165:202   */\n      mstore\n        /* \"#utility.yul\":90:208   */\n      pop\n      pop\n      jump\t// out\n        /* \"#utility.yul\":214:436   */\n    tag_12:\n        /* \"#utility.yul\":307:311   */\n      0x00\n        /* \"#utility.yul\":345:347   */\n      0x20\n        /* \"#utility.yul\":334:343   */\n      dup3\n        /* \"#utility.yul\":330:348   */\n      add\n        /* \"#utility.yul\":322:348   */\n      swap1\n      pop\n        /* \"#utility.yul\":358:429   */\n      tag_116\n        /* \"#utility.yul\":426:427   */\n      0x00\n        /* \"#utility.yul\":415:424   */\n      dup4\n        /* \"#utility.yul\":411:428   */\n      add\n        /* \"#utility.yul\":402:408   */\n      dup5\n        /* \"#utility.yul\":358:429   */\n      tag_63\n      jump\t// in\n    tag_116:\n        /* \"#utility.yul\":214:436   */\n      swap3\n      swap2\n      pop\n      pop\n      jump\t// out\n        /* \"#utility.yul\":442:517   */\n    tag_64:\n        /* \"#utility.yul\":475:481   */\n      0x00\n        /* \"#utility.yul\":508:510   */\n      0x40\n        /* \"#utility.yul\":502:511   */\n      mload\n        /* \"#utility.yul\":492:511   */\n      swap1\n      pop\n        /* \"#utility.yul\":442:517   */\n      swap1\n      jump\t// out\n        /* \"#utility.yul\":523:640   */\n    tag_65:\n        /* \"#utility.yul\":632:633   */\n      0x00\n        /* \"#utility.yul\":629:630   */\n      dup1\n        /* \"#utility.yul\":622:634   */\n      revert\n        /* \"#utility.yul\":646:763   */\n    tag_66:\n        /* \"#utility.yul\":755:756   */\n      0x00\n        /* \"#utility.yul\":752:753   */\n      dup1\n        /* \"#utility.yul\":745:757   */\n      revert\n        /* \"#utility.yul\":769:895   */\n    tag_67:\n        /* \"#utility.yul\":806:813   */\n      0x00\n        /* \"#utility.yul\":846:888   */\n      0xffffffffffffffffffffffffffffffffffffffff\n        /* \"#utility.yul\":839:844   */\n      dup3\n        /* \"#utility.yul\":835:889   */\n      and\n        /* \"#utility.yul\":824:889   */\n      swap1\n      pop\n        /* \"#utility.yul\":769:895   */\n      swap2\n      swap1\n      pop\n      jump\t// out\n        /* \"#utility.yul\":901:1005   */\n    tag_68:\n        /* \"#utility.yul\":946:953   */\n      0x00\n        /* \"#utility.yul\":975:999   */\n      tag_122\n        /* \"#utility.yul\":993:998   */\n      dup3\n        /* \"#utility.yul\":975:999   */\n      tag_67\n      jump\t// in\n    tag_122:\n        /* \"#utility.yul\":964:999   */\n      swap1\n      pop\n        /* \"#utility.yul\":901:1005   */\n      swap2\n      swap1\n      pop\n      jump\t// out\n        /* \"#utility.yul\":1011:1149   */\n    tag_69:\n        /* \"#utility.yul\":1092:1124   */\n      tag_124\n        /* \"#utility.yul\":1118:1123   */\n      dup2\n        /* \"#utility.yul\":1092:1124   */\n      tag_68\n      jump\t// in\n    tag_124:\n        /* \"#utility.yul\":1085:1090   */\n      dup2\n        /* \"#utility.yul\":1082:1125   */\n      eq\n        /* \"#utility.yul\":1072:1143   */\n      tag_125\n      jumpi\n        /* \"#utility.yul\":1139:1140   */\n      0x00\n        /* \"#utility.yul\":1136:1137   */\n      dup1\n        /* \"#utility.yul\":1129:1141   */\n      revert\n        /* \"#utility.yul\":1072:1143   */\n    tag_125:\n        /* \"#utility.yul\":1011:1149   */\n      pop\n      jump\t// out\n        /* \"#utility.yul\":1155:1310   */\n    tag_70:\n        /* \"#utility.yul\":1209:1214   */\n      0x00\n        /* \"#utility.yul\":1247:1253   */\n      dup2\n        /* \"#utility.yul\":1234:1254   */\n      calldataload\n        /* \"#utility.yul\":1225:1254   */\n      swap1\n      pop\n        /* \"#utility.yul\":1263:1304   */\n      tag_127\n        /* \"#utility.yul\":1298:1303   */\n      dup2\n        /* \"#utility.yul\":1263:1304   */\n      tag_69\n      jump\t// in\n    tag_127:\n        /* \"#utility.yul\":1155:1310   */\n      swap3\n      swap2\n      pop\n      pop\n      jump\t// out\n        /* \"#utility.yul\":1316:1661   */\n    tag_15:\n        /* \"#utility.yul\":1383:1389   */\n      0x00\n        /* \"#utility.yul\":1432:1434   */\n      0x20\n        /* \"#utility.yul\":1420:1429   */\n      dup3\n        /* \"#utility.yul\":1411:1418   */\n      dup5\n        /* \"#utility.yul\":1407:1430   */\n      sub\n        /* \"#utility.yul\":1403:1435   */\n      slt\n        /* \"#utility.yul\":1400:1519   */\n      iszero\n      tag_129\n      jumpi\n        /* \"#utility.yul\":1438:1517   */\n      tag_130\n      tag_65\n      jump\t// in\n    tag_130:\n        /* \"#utility.yul\":1400:1519   */\n    tag_129:\n        /* \"#utility.yul\":1558:1559   */\n      0x00\n        /* \"#utility.yul\":1583:1644   */\n      tag_131\n        /* \"#utility.yul\":1636:1643   */\n      dup5\n        /* \"#utility.yul\":1627:1633   */\n      dup3\n        /* \"#utility.yul\":1616:1625   */\n      dup6\n        /* \"#utility.yul\":1612:1634   */\n      add\n        /* \"#utility.yul\":1583:1644   */\n      tag_70\n      jump\t// in\n    tag_131:\n        /* \"#utility.yul\":1573:1644   */\n      swap2\n      pop\n        /* \"#utility.yul\":1529:1654   */\n      pop\n        /* \"#utility.yul\":1316:1661   */\n      swap3\n      swap2\n      pop\n      pop\n      jump\t// out\n        /* \"#utility.yul\":1667:1784   */\n    tag_71:\n        /* \"#utility.yul\":1776:1777   */\n      0x00\n        /* \"#utility.yul\":1773:1774   */\n      dup1\n        /* \"#utility.yul\":1766:1778   */\n      revert\n        /* \"#utility.yul\":1790:1907   */\n    tag_72:\n        /* \"#utility.yul\":1899:1900   */\n      0x00\n        /* \"#utility.yul\":1896:1897   */\n      dup1\n        /* \"#utility.yul\":1889:1901   */\n      revert\n        /* \"#utility.yul\":1913:2015   */\n    tag_73:\n        /* \"#utility.yul\":1954:1960   */\n      0x00\n        /* \"#utility.yul\":2005:2007   */\n      0x1f\n        /* \"#utility.yul\":2001:2008   */\n      not\n        /* \"#utility.yul\":1996:1998   */\n      0x1f\n        /* \"#utility.yul\":1989:1994   */\n      dup4\n        /* \"#utility.yul\":1985:1999   */\n      add\n        /* \"#utility.yul\":1981:2009   */\n      and\n        /* \"#utility.yul\":1971:2009   */\n      swap1\n      pop\n        /* \"#utility.yul\":1913:2015   */\n      swap2\n      swap1\n      pop\n      jump\t// out\n        /* \"#utility.yul\":2021:2201   */\n    tag_74:\n        /* \"#utility.yul\":2069:2146   */\n      0x4e487b7100000000000000000000000000000000000000000000000000000000\n        /* \"#utility.yul\":2066:2067   */\n      0x00\n        /* \"#utility.yul\":2059:2147   */\n      mstore\n        /* \"#utility.yul\":2166:2170   */\n      0x41\n        /* \"#utility.yul\":2163:2164   */\n      0x04\n        /* \"#utility.yul\":2156:2171   */\n      mstore\n        /* \"#utility.yul\":2190:2194   */\n      0x24\n        /* \"#utility.yul\":2187:2188   */\n      0x00\n        /* \"#utility.yul\":2180:2195   */\n      revert\n        /* \"#utility.yul\":2207:2488   */\n    tag_75:\n        /* \"#utility.yul\":2290:2317   */\n      tag_137\n        /* \"#utility.yul\":2312:2316   */\n      dup3\n        /* \"#utility.yul\":2290:2317   */\n      tag_73\n      jump\t// in\n    tag_137:\n        /* \"#utility.yul\":2282:2288   */\n      dup2\n        /* \"#utility.yul\":2278:2318   */\n      add\n        /* \"#utility.yul\":2420:2426   */\n      dup2\n        /* \"#utility.yul\":2408:2418   */\n      dup2\n        /* \"#utility.yul\":2405:2427   */\n      lt\n        /* \"#utility.yul\":2384:2402   */\n      0xffffffffffffffff\n        /* \"#utility.yul\":2372:2382   */\n      dup3\n        /* \"#utility.yul\":2369:2403   */\n      gt\n        /* \"#utility.yul\":2366:2428   */\n      or\n        /* \"#utility.yul\":2363:2451   */\n      iszero\n      tag_138\n      jumpi\n        /* \"#utility.yul\":2431:2449   */\n      tag_139\n      tag_74\n      jump\t// in\n    tag_139:\n        /* \"#utility.yul\":2363:2451   */\n    tag_138:\n        /* \"#utility.yul\":2471:2481   */\n      dup1\n        /* \"#utility.yul\":2467:2469   */\n      0x40\n        /* \"#utility.yul\":2460:2482   */\n      mstore\n        /* \"#utility.yul\":2250:2488   */\n      pop\n        /* \"#utility.yul\":2207:2488   */\n      pop\n      pop\n      jump\t// out\n        /* \"#utility.yul\":2494:2623   */\n    tag_76:\n        /* \"#utility.yul\":2528:2534   */\n      0x00\n        /* \"#utility.yul\":2555:2575   */\n      tag_141\n      tag_64\n      jump\t// in\n    tag_141:\n        /* \"#utility.yul\":2545:2575   */\n      swap1\n      pop\n        /* \"#utility.yul\":2584:2617   */\n      tag_142\n        /* \"#utility.yul\":2612:2616   */\n      dup3\n        /* \"#utility.yul\":2604:2610   */\n      dup3\n        /* \"#utility.yul\":2584:2617   */\n      tag_75\n      jump\t// in\n    tag_142:\n        /* \"#utility.yul\":2494:2623   */\n      swap2\n      swap1\n      pop\n      jump\t// out\n        /* \"#utility.yul\":2629:2937   */\n    tag_77:\n        /* \"#utility.yul\":2691:2695   */\n      0x00\n        /* \"#utility.yul\":2781:2799   */\n      0xffffffffffffffff\n        /* \"#utility.yul\":2773:2779   */\n      dup3\n        /* \"#utility.yul\":2770:2800   */\n      gt\n        /* \"#utility.yul\":2767:2823   */\n      iszero\n      tag_144\n      jumpi\n        /* \"#utility.yul\":2803:2821   */\n      tag_145\n      tag_74\n      jump\t// in\n    tag_145:\n        /* \"#utility.yul\":2767:2823   */\n    tag_144:\n        /* \"#utility.yul\":2841:2870   */\n      tag_146\n        /* \"#utility.yul\":2863:2869   */\n      dup3\n        /* \"#utility.yul\":2841:2870   */\n      tag_73\n      jump\t// in\n    tag_146:\n        /* \"#utility.yul\":2833:2870   */\n      swap1\n      pop\n        /* \"#utility.yul\":2925:2929   */\n      0x20\n        /* \"#utility.yul\":2919:2923   */\n      dup2\n        /* \"#utility.yul\":2915:2930   */\n      add\n        /* \"#utility.yul\":2907:2930   */\n      swap1\n      pop\n        /* \"#utility.yul\":2629:2937   */\n      swap2\n      swap1\n      pop\n      jump\t// out\n        /* \"#utility.yul\":2943:3089   */\n    tag_78:\n        /* \"#utility.yul\":3040:3046   */\n      dup3\n        /* \"#utility.yul\":3035:3038   */\n      dup2\n        /* \"#utility.yul\":3030:3033   */\n      dup4\n        /* \"#utility.yul\":3017:3047   */\n      calldatacopy\n        /* \"#utility.yul\":3081:3082   */\n      0x00\n        /* \"#utility.yul\":3072:3078   */\n      dup4\n        /* \"#utility.yul\":3067:3070   */\n      dup4\n        /* \"#utility.yul\":3063:3079   */\n      add\n        /* \"#utility.yul\":3056:3083   */\n      mstore\n        /* \"#utility.yul\":2943:3089   */\n      pop\n      pop\n      pop\n      jump\t// out\n        /* \"#utility.yul\":3095:3520   */\n    tag_79:\n        /* \"#utility.yul\":3173:3178   */\n      0x00\n        /* \"#utility.yul\":3198:3264   */\n      tag_149\n        /* \"#utility.yul\":3214:3263   */\n      tag_150\n        /* \"#utility.yul\":3256:3262   */\n      dup5\n        /* \"#utility.yul\":3214:3263   */\n      tag_77\n      jump\t// in\n    tag_150:\n        /* \"#utility.yul\":3198:3264   */\n      tag_76\n      jump\t// in\n    tag_149:\n        /* \"#utility.yul\":3189:3264   */\n      swap1\n      pop\n        /* \"#utility.yul\":3287:3293   */\n      dup3\n        /* \"#utility.yul\":3280:3285   */\n      dup2\n        /* \"#utility.yul\":3273:3294   */\n      mstore\n        /* \"#utility.yul\":3325:3329   */\n      0x20\n        /* \"#utility.yul\":3318:3323   */\n      dup2\n        /* \"#utility.yul\":3314:3330   */\n      add\n        /* \"#utility.yul\":3363:3366   */\n      dup5\n        /* \"#utility.yul\":3354:3360   */\n      dup5\n        /* \"#utility.yul\":3349:3352   */\n      dup5\n        /* \"#utility.yul\":3345:3361   */\n      add\n        /* \"#utility.yul\":3342:3367   */\n      gt\n        /* \"#utility.yul\":3339:3451   */\n      iszero\n      tag_151\n      jumpi\n        /* \"#utility.yul\":3370:3449   */\n      tag_152\n      tag_72\n      jump\t// in\n    tag_152:\n        /* \"#utility.yul\":3339:3451   */\n    tag_151:\n        /* \"#utility.yul\":3460:3514   */\n      tag_153\n        /* \"#utility.yul\":3507:3513   */\n      dup5\n        /* \"#utility.yul\":3502:3505   */\n      dup3\n        /* \"#utility.yul\":3497:3500   */\n      dup6\n        /* \"#utility.yul\":3460:3514   */\n      tag_78\n      jump\t// in\n    tag_153:\n        /* \"#utility.yul\":3179:3520   */\n      pop\n        /* \"#utility.yul\":3095:3520   */\n      swap4\n      swap3\n      pop\n      pop\n      pop\n      jump\t// out\n        /* \"#utility.yul\":3540:3880   */\n    tag_80:\n        /* \"#utility.yul\":3596:3601   */\n      0x00\n        /* \"#utility.yul\":3645:3648   */\n      dup3\n        /* \"#utility.yul\":3638:3642   */\n      0x1f\n        /* \"#utility.yul\":3630:3636   */\n      dup4\n        /* \"#utility.yul\":3626:3643   */\n      add\n        /* \"#utility.yul\":3622:3649   */\n      slt\n        /* \"#utility.yul\":3612:3734   */\n      tag_155\n      jumpi\n        /* \"#utility.yul\":3653:3732   */\n      tag_156\n      tag_71\n      jump\t// in\n    tag_156:\n        /* \"#utility.yul\":3612:3734   */\n    tag_155:\n        /* \"#utility.yul\":3770:3776   */\n      dup2\n        /* \"#utility.yul\":3757:3777   */\n      calldataload\n        /* \"#utility.yul\":3795:3874   */\n      tag_157\n        /* \"#utility.yul\":3870:3873   */\n      dup5\n        /* \"#utility.yul\":3862:3868   */\n      dup3\n        /* \"#utility.yul\":3855:3859   */\n      0x20\n        /* \"#utility.yul\":3847:3853   */\n      dup7\n        /* \"#utility.yul\":3843:3860   */\n      add\n        /* \"#utility.yul\":3795:3874   */\n      tag_79\n      jump\t// in\n    tag_157:\n        /* \"#utility.yul\":3786:3874   */\n      swap2\n      pop\n        /* \"#utility.yul\":3602:3880   */\n      pop\n        /* \"#utility.yul\":3540:3880   */\n      swap3\n      swap2\n      pop\n      pop\n      jump\t// out\n        /* \"#utility.yul\":3886:4395   */\n    tag_20:\n        /* \"#utility.yul\":3955:3961   */\n      0x00\n        /* \"#utility.yul\":4004:4006   */\n      0x20\n        /* \"#utility.yul\":3992:4001   */\n      dup3\n        /* \"#utility.yul\":3983:3990   */\n      dup5\n        /* \"#utility.yul\":3979:4002   */\n      sub\n        /* \"#utility.yul\":3975:4007   */\n      slt\n        /* \"#utility.yul\":3972:4091   */\n      iszero\n      tag_159\n      jumpi\n        /* \"#utility.yul\":4010:4089   */\n      tag_160\n      tag_65\n      jump\t// in\n    tag_160:\n        /* \"#utility.yul\":3972:4091   */\n    tag_159:\n        /* \"#utility.yul\":4158:4159   */\n      0x00\n        /* \"#utility.yul\":4147:4156   */\n      dup3\n        /* \"#utility.yul\":4143:4160   */\n      add\n        /* \"#utility.yul\":4130:4161   */\n      calldataload\n        /* \"#utility.yul\":4188:4206   */\n      0xffffffffffffffff\n        /* \"#utility.yul\":4180:4186   */\n      dup2\n        /* \"#utility.yul\":4177:4207   */\n      gt\n        /* \"#utility.yul\":4174:4291   */\n      iszero\n      tag_161\n      jumpi\n        /* \"#utility.yul\":4210:4289   */\n      tag_162\n      tag_66\n      jump\t// in\n    tag_162:\n        /* \"#utility.yul\":4174:4291   */\n    tag_161:\n        /* \"#utility.yul\":4315:4378   */\n      tag_163\n        /* \"#utility.yul\":4370:4377   */\n      dup5\n        /* \"#utility.yul\":4361:4367   */\n      dup3\n        /* \"#utility.yul\":4350:4359   */\n      dup6\n        /* \"#utility.yul\":4346:4368   */\n      add\n        /* \"#utility.yul\":4315:4378   */\n      tag_80\n      jump\t// in\n    tag_163:\n        /* \"#utility.yul\":4305:4378   */\n      swap2\n      pop\n        /* \"#utility.yul\":4101:4388   */\n      pop\n        /* \"#utility.yul\":3886:4395   */\n      swap3\n      swap2\n      pop\n      pop\n      jump\t// out\n        /* \"#utility.yul\":4401:4500   */\n    tag_81:\n        /* \"#utility.yul\":4453:4459   */\n      0x00\n        /* \"#utility.yul\":4487:4492   */\n      dup2\n        /* \"#utility.yul\":4481:4493   */\n      mload\n        /* \"#utility.yul\":4471:4493   */\n      swap1\n      pop\n        /* \"#utility.yul\":4401:4500   */\n      swap2\n      swap1\n      pop\n      jump\t// out\n        /* \"#utility.yul\":4506:4675   */\n    tag_82:\n        /* \"#utility.yul\":4590:4601   */\n      0x00\n        /* \"#utility.yul\":4624:4630   */\n      dup3\n        /* \"#utility.yul\":4619:4622   */\n      dup3\n        /* \"#utility.yul\":4612:4631   */\n      mstore\n        /* \"#utility.yul\":4664:4668   */\n      0x20\n        /* \"#utility.yul\":4659:4662   */\n      dup3\n        /* \"#utility.yul\":4655:4669   */\n      add\n        /* \"#utility.yul\":4640:4669   */\n      swap1\n      pop\n        /* \"#utility.yul\":4506:4675   */\n      swap3\n      swap2\n      pop\n      pop\n      jump\t// out\n        /* \"#utility.yul\":4681:4927   */\n    tag_83:\n        /* \"#utility.yul\":4762:4763   */\n      0x00\n        /* \"#utility.yul\":4772:4885   */\n    tag_167:\n        /* \"#utility.yul\":4786:4792   */\n      dup4\n        /* \"#utility.yul\":4783:4784   */\n      dup2\n        /* \"#utility.yul\":4780:4793   */\n      lt\n        /* \"#utility.yul\":4772:4885   */\n      iszero\n      tag_169\n      jumpi\n        /* \"#utility.yul\":4871:4872   */\n      dup1\n        /* \"#utility.yul\":4866:4869   */\n      dup3\n        /* \"#utility.yul\":4862:4873   */\n      add\n        /* \"#utility.yul\":4856:4874   */\n      mload\n        /* \"#utility.yul\":4852:4853   */\n      dup2\n        /* \"#utility.yul\":4847:4850   */\n      dup5\n        /* \"#utility.yul\":4843:4854   */\n      add\n        /* \"#utility.yul\":4836:4875   */\n      mstore\n        /* \"#utility.yul\":4808:4810   */\n      0x20\n        /* \"#utility.yul\":4805:4806   */\n      dup2\n        /* \"#utility.yul\":4801:4811   */\n      add\n        /* \"#utility.yul\":4796:4811   */\n      swap1\n      pop\n        /* \"#utility.yul\":4772:4885   */\n      jump(tag_167)\n    tag_169:\n        /* \"#utility.yul\":4919:4920   */\n      0x00\n        /* \"#utility.yul\":4910:4916   */\n      dup5\n        /* \"#utility.yul\":4905:4908   */\n      dup5\n        /* \"#utility.yul\":4901:4917   */\n      add\n        /* \"#utility.yul\":4894:4921   */\n      mstore\n        /* \"#utility.yul\":4743:4927   */\n      pop\n        /* \"#utility.yul\":4681:4927   */\n      pop\n      pop\n      pop\n      jump\t// out\n        /* \"#utility.yul\":4933:5310   */\n    tag_84:\n        /* \"#utility.yul\":5021:5024   */\n      0x00\n        /* \"#utility.yul\":5049:5088   */\n      tag_171\n        /* \"#utility.yul\":5082:5087   */\n      dup3\n        /* \"#utility.yul\":5049:5088   */\n      tag_81\n      jump\t// in\n    tag_171:\n        /* \"#utility.yul\":5104:5175   */\n      tag_172\n        /* \"#utility.yul\":5168:5174   */\n      dup2\n        /* \"#utility.yul\":5163:5166   */\n      dup6\n        /* \"#utility.yul\":5104:5175   */\n      tag_82\n      jump\t// in\n    tag_172:\n        /* \"#utility.yul\":5097:5175   */\n      swap4\n      pop\n        /* \"#utility.yul\":5184:5249   */\n      tag_173\n        /* \"#utility.yul\":5242:5248   */\n      dup2\n        /* \"#utility.yul\":5237:5240   */\n      dup6\n        /* \"#utility.yul\":5230:5234   */\n      0x20\n        /* \"#utility.yul\":5223:5228   */\n      dup7\n        /* \"#utility.yul\":5219:5235   */\n      add\n        /* \"#utility.yul\":5184:5249   */\n      tag_83\n      jump\t// in\n    tag_173:\n        /* \"#utility.yul\":5274:5303   */\n      tag_174\n        /* \"#utility.yul\":5296:5302   */\n      dup2\n        /* \"#utility.yul\":5274:5303   */\n      tag_73\n      jump\t// in\n    tag_174:\n        /* \"#utility.yul\":5269:5272   */\n      dup5\n        /* \"#utility.yul\":5265:5304   */\n      add\n        /* \"#utility.yul\":5258:5304   */\n      swap2\n      pop\n        /* \"#utility.yul\":5025:5310   */\n      pop\n        /* \"#utility.yul\":4933:5310   */\n      swap3\n      swap2\n      pop\n      pop\n      jump\t// out\n        /* \"#utility.yul\":5316:5629   */\n    tag_26:\n        /* \"#utility.yul\":5429:5433   */\n      0x00\n        /* \"#utility.yul\":5467:5469   */\n      0x20\n        /* \"#utility.yul\":5456:5465   */\n      dup3\n        /* \"#utility.yul\":5452:5470   */\n      add\n        /* \"#utility.yul\":5444:5470   */\n      swap1\n      pop\n        /* \"#utility.yul\":5516:5525   */\n      dup2\n        /* \"#utility.yul\":5510:5514   */\n      dup2\n        /* \"#utility.yul\":5506:5526   */\n      sub\n        /* \"#utility.yul\":5502:5503   */\n      0x00\n        /* \"#utility.yul\":5491:5500   */\n      dup4\n        /* \"#utility.yul\":5487:5504   */\n      add\n        /* \"#utility.yul\":5480:5527   */\n      mstore\n        /* \"#utility.yul\":5544:5622   */\n      tag_176\n        /* \"#utility.yul\":5617:5621   */\n      dup2\n        /* \"#utility.yul\":5608:5614   */\n      dup5\n        /* \"#utility.yul\":5544:5622   */\n      tag_84\n      jump\t// in\n    tag_176:\n        /* \"#utility.yul\":5536:5622   */\n      swap1\n      pop\n        /* \"#utility.yul\":5316:5629   */\n      swap3\n      swap2\n      pop\n      pop\n      jump\t// out\n        /* \"#utility.yul\":5635:5725   */\n    tag_85:\n        /* \"#utility.yul\":5669:5676   */\n      0x00\n        /* \"#utility.yul\":5712:5717   */\n      dup2\n        /* \"#utility.yul\":5705:5718   */\n      iszero\n        /* \"#utility.yul\":5698:5719   */\n      iszero\n        /* \"#utility.yul\":5687:5719   */\n      swap1\n      pop\n        /* \"#utility.yul\":5635:5725   */\n      swap2\n      swap1\n      pop\n      jump\t// out\n        /* \"#utility.yul\":5731:5847   */\n    tag_86:\n        /* \"#utility.yul\":5801:5822   */\n      tag_179\n        /* \"#utility.yul\":5816:5821   */\n      dup2\n        /* \"#utility.yul\":5801:5822   */\n      tag_85\n      jump\t// in\n    tag_179:\n        /* \"#utility.yul\":5794:5799   */\n      dup2\n        /* \"#utility.yul\":5791:5823   */\n      eq\n        /* \"#utility.yul\":5781:5841   */\n      tag_180\n      jumpi\n        /* \"#utility.yul\":5837:5838   */\n      0x00\n        /* \"#utility.yul\":5834:5835   */\n      dup1\n        /* \"#utility.yul\":5827:5839   */\n      revert\n        /* \"#utility.yul\":5781:5841   */\n    tag_180:\n        /* \"#utility.yul\":5731:5847   */\n      pop\n      jump\t// out\n        /* \"#utility.yul\":5853:5986   */\n    tag_87:\n        /* \"#utility.yul\":5896:5901   */\n      0x00\n        /* \"#utility.yul\":5934:5940   */\n      dup2\n        /* \"#utility.yul\":5921:5941   */\n      calldataload\n        /* \"#utility.yul\":5912:5941   */\n      swap1\n      pop\n        /* \"#utility.yul\":5950:5980   */\n      tag_182\n        /* \"#utility.yul\":5974:5979   */\n      dup2\n        /* \"#utility.yul\":5950:5980   */\n      tag_86\n      jump\t// in\n    tag_182:\n        /* \"#utility.yul\":5853:5986   */\n      swap3\n      swap2\n      pop\n      pop\n      jump\t// out\n        /* \"#utility.yul\":5992:6315   */\n    tag_34:\n        /* \"#utility.yul\":6048:6054   */\n      0x00\n        /* \"#utility.yul\":6097:6099   */\n      0x20\n        /* \"#utility.yul\":6085:6094   */\n      dup3\n        /* \"#utility.yul\":6076:6083   */\n      dup5\n        /* \"#utility.yul\":6072:6095   */\n      sub\n        /* \"#utility.yul\":6068:6100   */\n      slt\n        /* \"#utility.yul\":6065:6184   */\n      iszero\n      tag_184\n      jumpi\n        /* \"#utility.yul\":6103:6182   */\n      tag_185\n      tag_65\n      jump\t// in\n    tag_185:\n        /* \"#utility.yul\":6065:6184   */\n    tag_184:\n        /* \"#utility.yul\":6223:6224   */\n      0x00\n        /* \"#utility.yul\":6248:6298   */\n      tag_186\n        /* \"#utility.yul\":6290:6297   */\n      dup5\n        /* \"#utility.yul\":6281:6287   */\n      dup3\n        /* \"#utility.yul\":6270:6279   */\n      dup6\n        /* \"#utility.yul\":6266:6288   */\n      add\n        /* \"#utility.yul\":6248:6298   */\n      tag_87\n      jump\t// in\n    tag_186:\n        /* \"#utility.yul\":6238:6298   */\n      swap2\n      pop\n        /* \"#utility.yul\":6194:6308   */\n      pop\n        /* \"#utility.yul\":5992:6315   */\n      swap3\n      swap2\n      pop\n      pop\n      jump\t// out\n        /* \"#utility.yul\":6321:6543   */\n    tag_88:\n        /* \"#utility.yul\":6461:6495   */\n      0x517565207261726f206d616e64617274652064696e65726f2061207469206d69\n        /* \"#utility.yul\":6457:6458   */\n      0x00\n        /* \"#utility.yul\":6449:6455   */\n      dup3\n        /* \"#utility.yul\":6445:6459   */\n      add\n        /* \"#utility.yul\":6438:6496   */\n      mstore\n        /* \"#utility.yul\":6530:6535   */\n      0x736d6f0000000000000000000000000000000000000000000000000000000000\n        /* \"#utility.yul\":6525:6527   */\n      0x20\n        /* \"#utility.yul\":6517:6523   */\n      dup3\n        /* \"#utility.yul\":6513:6528   */\n      add\n        /* \"#utility.yul\":6506:6536   */\n      mstore\n        /* \"#utility.yul\":6321:6543   */\n      pop\n      jump\t// out\n        /* \"#utility.yul\":6549:6915   */\n    tag_89:\n        /* \"#utility.yul\":6691:6694   */\n      0x00\n        /* \"#utility.yul\":6712:6779   */\n      tag_189\n        /* \"#utility.yul\":6776:6778   */\n      0x23\n        /* \"#utility.yul\":6771:6774   */\n      dup4\n        /* \"#utility.yul\":6712:6779   */\n      tag_82\n      jump\t// in\n    tag_189:\n        /* \"#utility.yul\":6705:6779   */\n      swap2\n      pop\n        /* \"#utility.yul\":6788:6881   */\n      tag_190\n        /* \"#utility.yul\":6877:6880   */\n      dup3\n        /* \"#utility.yul\":6788:6881   */\n      tag_88\n      jump\t// in\n    tag_190:\n        /* \"#utility.yul\":6906:6908   */\n      0x40\n        /* \"#utility.yul\":6901:6904   */\n      dup3\n        /* \"#utility.yul\":6897:6909   */\n      add\n        /* \"#utility.yul\":6890:6909   */\n      swap1\n      pop\n        /* \"#utility.yul\":6549:6915   */\n      swap2\n      swap1\n      pop\n      jump\t// out\n        /* \"#utility.yul\":6921:7340   */\n    tag_40:\n        /* \"#utility.yul\":7087:7091   */\n      0x00\n        /* \"#utility.yul\":7125:7127   */\n      0x20\n        /* \"#utility.yul\":7114:7123   */\n      dup3\n        /* \"#utility.yul\":7110:7128   */\n      add\n        /* \"#utility.yul\":7102:7128   */\n      swap1\n      pop\n        /* \"#utility.yul\":7174:7183   */\n      dup2\n        /* \"#utility.yul\":7168:7172   */\n      dup2\n        /* \"#utility.yul\":7164:7184   */\n      sub\n        /* \"#utility.yul\":7160:7161   */\n      0x00\n        /* \"#utility.yul\":7149:7158   */\n      dup4\n        /* \"#utility.yul\":7145:7162   */\n      add\n        /* \"#utility.yul\":7138:7185   */\n      mstore\n        /* \"#utility.yul\":7202:7333   */\n      tag_192\n        /* \"#utility.yul\":7328:7332   */\n      dup2\n        /* \"#utility.yul\":7202:7333   */\n      tag_89\n      jump\t// in\n    tag_192:\n        /* \"#utility.yul\":7194:7333   */\n      swap1\n      pop\n        /* \"#utility.yul\":6921:7340   */\n      swap2\n      swap1\n      pop\n      jump\t// out\n        /* \"#utility.yul\":7346:7592   */\n    tag_90:\n        /* \"#utility.yul\":7486:7520   */\n      0x456c2070726f796563746f207961206e6f20657374612061637469766f2c206c\n        /* \"#utility.yul\":7482:7483   */\n      0x00\n        /* \"#utility.yul\":7474:7480   */\n      dup3\n        /* \"#utility.yul\":7470:7484   */\n      add\n        /* \"#utility.yul\":7463:7521   */\n      mstore\n        /* \"#utility.yul\":7555:7584   */\n      0x6f20687562696573657320686563686f20616e7465732042524f2e0000000000\n        /* \"#utility.yul\":7550:7552   */\n      0x20\n        /* \"#utility.yul\":7542:7548   */\n      dup3\n        /* \"#utility.yul\":7538:7553   */\n      add\n        /* \"#utility.yul\":7531:7585   */\n      mstore\n        /* \"#utility.yul\":7346:7592   */\n      pop\n      jump\t// out\n        /* \"#utility.yul\":7598:7964   */\n    tag_91:\n        /* \"#utility.yul\":7740:7743   */\n      0x00\n        /* \"#utility.yul\":7761:7828   */\n      tag_195\n        /* \"#utility.yul\":7825:7827   */\n      0x3b\n        /* \"#utility.yul\":7820:7823   */\n      dup4\n        /* \"#utility.yul\":7761:7828   */\n      tag_82\n      jump\t// in\n    tag_195:\n        /* \"#utility.yul\":7754:7828   */\n      swap2\n      pop\n        /* \"#utility.yul\":7837:7930   */\n      tag_196\n        /* \"#utility.yul\":7926:7929   */\n      dup3\n        /* \"#utility.yul\":7837:7930   */\n      tag_90\n      jump\t// in\n    tag_196:\n        /* \"#utility.yul\":7955:7957   */\n      0x40\n        /* \"#utility.yul\":7950:7953   */\n      dup3\n        /* \"#utility.yul\":7946:7958   */\n      add\n        /* \"#utility.yul\":7939:7958   */\n      swap1\n      pop\n        /* \"#utility.yul\":7598:7964   */\n      swap2\n      swap1\n      pop\n      jump\t// out\n        /* \"#utility.yul\":7970:8389   */\n    tag_43:\n        /* \"#utility.yul\":8136:8140   */\n      0x00\n        /* \"#utility.yul\":8174:8176   */\n      0x20\n        /* \"#utility.yul\":8163:8172   */\n      dup3\n        /* \"#utility.yul\":8159:8177   */\n      add\n        /* \"#utility.yul\":8151:8177   */\n      swap1\n      pop\n        /* \"#utility.yul\":8223:8232   */\n      dup2\n        /* \"#utility.yul\":8217:8221   */\n      dup2\n        /* \"#utility.yul\":8213:8233   */\n      sub\n        /* \"#utility.yul\":8209:8210   */\n      0x00\n        /* \"#utility.yul\":8198:8207   */\n      dup4\n        /* \"#utility.yul\":8194:8211   */\n      add\n        /* \"#utility.yul\":8187:8234   */\n      mstore\n        /* \"#utility.yul\":8251:8382   */\n      tag_198\n        /* \"#utility.yul\":8377:8381   */\n      dup2\n        /* \"#utility.yul\":8251:8382   */\n      tag_91\n      jump\t// in\n    tag_198:\n        /* \"#utility.yul\":8243:8382   */\n      swap1\n      pop\n        /* \"#utility.yul\":7970:8389   */\n      swap2\n      swap1\n      pop\n      jump\t// out\n        /* \"#utility.yul\":8395:8575   */\n    tag_92:\n        /* \"#utility.yul\":8443:8520   */\n      0x4e487b7100000000000000000000000000000000000000000000000000000000\n        /* \"#utility.yul\":8440:8441   */\n      0x00\n        /* \"#utility.yul\":8433:8521   */\n      mstore\n        /* \"#utility.yul\":8540:8544   */\n      0x11\n        /* \"#utility.yul\":8537:8538   */\n      0x04\n        /* \"#utility.yul\":8530:8545   */\n      mstore\n        /* \"#utility.yul\":8564:8568   */\n      0x24\n        /* \"#utility.yul\":8561:8562   */\n      0x00\n        /* \"#utility.yul\":8554:8569   */\n      revert\n        /* \"#utility.yul\":8581:8772   */\n    tag_47:\n        /* \"#utility.yul\":8621:8624   */\n      0x00\n        /* \"#utility.yul\":8640:8660   */\n      tag_201\n        /* \"#utility.yul\":8658:8659   */\n      dup3\n        /* \"#utility.yul\":8640:8660   */\n      tag_62\n      jump\t// in\n    tag_201:\n        /* \"#utility.yul\":8635:8660   */\n      swap2\n      pop\n        /* \"#utility.yul\":8674:8694   */\n      tag_202\n        /* \"#utility.yul\":8692:8693   */\n      dup4\n        /* \"#utility.yul\":8674:8694   */\n      tag_62\n      jump\t// in\n    tag_202:\n        /* \"#utility.yul\":8669:8694   */\n      swap3\n      pop\n        /* \"#utility.yul\":8717:8718   */\n      dup3\n        /* \"#utility.yul\":8714:8715   */\n      dup3\n        /* \"#utility.yul\":8710:8719   */\n      add\n        /* \"#utility.yul\":8703:8719   */\n      swap1\n      pop\n        /* \"#utility.yul\":8738:8741   */\n      dup1\n        /* \"#utility.yul\":8735:8736   */\n      dup3\n        /* \"#utility.yul\":8732:8742   */\n      gt\n        /* \"#utility.yul\":8729:8765   */\n      iszero\n      tag_203\n      jumpi\n        /* \"#utility.yul\":8745:8763   */\n      tag_204\n      tag_92\n      jump\t// in\n    tag_204:\n        /* \"#utility.yul\":8729:8765   */\n    tag_203:\n        /* \"#utility.yul\":8581:8772   */\n      swap3\n      swap2\n      pop\n      pop\n      jump\t// out\n        /* \"#utility.yul\":8778:9006   */\n    tag_93:\n        /* \"#utility.yul\":8918:8952   */\n      0x456c206e6f6d6272652064656c2070726f796563746f2065732064656d617369\n        /* \"#utility.yul\":8914:8915   */\n      0x00\n        /* \"#utility.yul\":8906:8912   */\n      dup3\n        /* \"#utility.yul\":8902:8916   */\n      add\n        /* \"#utility.yul\":8895:8953   */\n      mstore\n        /* \"#utility.yul\":8987:8998   */\n      0x61646f20636f72746f0000000000000000000000000000000000000000000000\n        /* \"#utility.yul\":8982:8984   */\n      0x20\n        /* \"#utility.yul\":8974:8980   */\n      dup3\n        /* \"#utility.yul\":8970:8985   */\n      add\n        /* \"#utility.yul\":8963:8999   */\n      mstore\n        /* \"#utility.yul\":8778:9006   */\n      pop\n      jump\t// out\n        /* \"#utility.yul\":9012:9378   */\n    tag_94:\n        /* \"#utility.yul\":9154:9157   */\n      0x00\n        /* \"#utility.yul\":9175:9242   */\n      tag_207\n        /* \"#utility.yul\":9239:9241   */\n      0x29\n        /* \"#utility.yul\":9234:9237   */\n      dup4\n        /* \"#utility.yul\":9175:9242   */\n      tag_82\n      jump\t// in\n    tag_207:\n        /* \"#utility.yul\":9168:9242   */\n      swap2\n      pop\n        /* \"#utility.yul\":9251:9344   */\n      tag_208\n        /* \"#utility.yul\":9340:9343   */\n      dup3\n        /* \"#utility.yul\":9251:9344   */\n      tag_93\n      jump\t// in\n    tag_208:\n        /* \"#utility.yul\":9369:9371   */\n      0x40\n        /* \"#utility.yul\":9364:9367   */\n      dup3\n        /* \"#utility.yul\":9360:9372   */\n      add\n        /* \"#utility.yul\":9353:9372   */\n      swap1\n      pop\n        /* \"#utility.yul\":9012:9378   */\n      swap2\n      swap1\n      pop\n      jump\t// out\n        /* \"#utility.yul\":9384:9803   */\n    tag_51:\n        /* \"#utility.yul\":9550:9554   */\n      0x00\n        /* \"#utility.yul\":9588:9590   */\n      0x20\n        /* \"#utility.yul\":9577:9586   */\n      dup3\n        /* \"#utility.yul\":9573:9591   */\n      add\n        /* \"#utility.yul\":9565:9591   */\n      swap1\n      pop\n        /* \"#utility.yul\":9637:9646   */\n      dup2\n        /* \"#utility.yul\":9631:9635   */\n      dup2\n        /* \"#utility.yul\":9627:9647   */\n      sub\n        /* \"#utility.yul\":9623:9624   */\n      0x00\n        /* \"#utility.yul\":9612:9621   */\n      dup4\n        /* \"#utility.yul\":9608:9625   */\n      add\n        /* \"#utility.yul\":9601:9648   */\n      mstore\n        /* \"#utility.yul\":9665:9796   */\n      tag_210\n        /* \"#utility.yul\":9791:9795   */\n      dup2\n        /* \"#utility.yul\":9665:9796   */\n      tag_94\n      jump\t// in\n    tag_210:\n        /* \"#utility.yul\":9657:9796   */\n      swap1\n      pop\n        /* \"#utility.yul\":9384:9803   */\n      swap2\n      swap1\n      pop\n      jump\t// out\n        /* \"#utility.yul\":9809:9989   */\n    tag_95:\n        /* \"#utility.yul\":9857:9934   */\n      0x4e487b7100000000000000000000000000000000000000000000000000000000\n        /* \"#utility.yul\":9854:9855   */\n      0x00\n        /* \"#utility.yul\":9847:9935   */\n      mstore\n        /* \"#utility.yul\":9954:9958   */\n      0x22\n        /* \"#utility.yul\":9951:9952   */\n      0x04\n        /* \"#utility.yul\":9944:9959   */\n      mstore\n        /* \"#utility.yul\":9978:9982   */\n      0x24\n        /* \"#utility.yul\":9975:9976   */\n      0x00\n        /* \"#utility.yul\":9968:9983   */\n      revert\n        /* \"#utility.yul\":9995:10315   */\n    tag_56:\n        /* \"#utility.yul\":10039:10045   */\n      0x00\n        /* \"#utility.yul\":10076:10077   */\n      0x02\n        /* \"#utility.yul\":10070:10074   */\n      dup3\n        /* \"#utility.yul\":10066:10078   */\n      div\n        /* \"#utility.yul\":10056:10078   */\n      swap1\n      pop\n        /* \"#utility.yul\":10123:10124   */\n      0x01\n        /* \"#utility.yul\":10117:10121   */\n      dup3\n        /* \"#utility.yul\":10113:10125   */\n      and\n        /* \"#utility.yul\":10144:10162   */\n      dup1\n        /* \"#utility.yul\":10134:10215   */\n      tag_213\n      jumpi\n        /* \"#utility.yul\":10200:10204   */\n      0x7f\n        /* \"#utility.yul\":10192:10198   */\n      dup3\n        /* \"#utility.yul\":10188:10205   */\n      and\n        /* \"#utility.yul\":10178:10205   */\n      swap2\n      pop\n        /* \"#utility.yul\":10134:10215   */\n    tag_213:\n        /* \"#utility.yul\":10262:10264   */\n      0x20\n        /* \"#utility.yul\":10254:10260   */\n      dup3\n        /* \"#utility.yul\":10251:10265   */\n      lt\n        /* \"#utility.yul\":10231:10249   */\n      dup2\n        /* \"#utility.yul\":10228:10266   */\n      sub\n        /* \"#utility.yul\":10225:10309   */\n      tag_214\n      jumpi\n        /* \"#utility.yul\":10281:10299   */\n      tag_215\n      tag_95\n      jump\t// in\n    tag_215:\n        /* \"#utility.yul\":10225:10309   */\n    tag_214:\n        /* \"#utility.yul\":10046:10315   */\n      pop\n        /* \"#utility.yul\":9995:10315   */\n      swap2\n      swap1\n      pop\n      jump\t// out\n        /* \"#utility.yul\":10321:10462   */\n    tag_96:\n        /* \"#utility.yul\":10370:10374   */\n      0x00\n        /* \"#utility.yul\":10393:10396   */\n      dup2\n        /* \"#utility.yul\":10385:10396   */\n      swap1\n      pop\n        /* \"#utility.yul\":10416:10419   */\n      dup2\n        /* \"#utility.yul\":10413:10414   */\n      0x00\n        /* \"#utility.yul\":10406:10420   */\n      mstore\n        /* \"#utility.yul\":10450:10454   */\n      0x20\n        /* \"#utility.yul\":10447:10448   */\n      0x00\n        /* \"#utility.yul\":10437:10455   */\n      keccak256\n        /* \"#utility.yul\":10429:10455   */\n      swap1\n      pop\n        /* \"#utility.yul\":10321:10462   */\n      swap2\n      swap1\n      pop\n      jump\t// out\n        /* \"#utility.yul\":10468:10561   */\n    tag_97:\n        /* \"#utility.yul\":10505:10511   */\n      0x00\n        /* \"#utility.yul\":10552:10554   */\n      0x20\n        /* \"#utility.yul\":10547:10549   */\n      0x1f\n        /* \"#utility.yul\":10540:10545   */\n      dup4\n        /* \"#utility.yul\":10536:10550   */\n      add\n        /* \"#utility.yul\":10532:10555   */\n      div\n        /* \"#utility.yul\":10522:10555   */\n      swap1\n      pop\n        /* \"#utility.yul\":10468:10561   */\n      swap2\n      swap1\n      pop\n      jump\t// out\n        /* \"#utility.yul\":10567:10674   */\n    tag_98:\n        /* \"#utility.yul\":10611:10619   */\n      0x00\n        /* \"#utility.yul\":10661:10666   */\n      dup3\n        /* \"#utility.yul\":10655:10659   */\n      dup3\n        /* \"#utility.yul\":10651:10667   */\n      shl\n        /* \"#utility.yul\":10630:10667   */\n      swap1\n      pop\n        /* \"#utility.yul\":10567:10674   */\n      swap3\n      swap2\n      pop\n      pop\n      jump\t// out\n        /* \"#utility.yul\":10680:11073   */\n    tag_99:\n        /* \"#utility.yul\":10749:10755   */\n      0x00\n        /* \"#utility.yul\":10799:10800   */\n      0x08\n        /* \"#utility.yul\":10787:10797   */\n      dup4\n        /* \"#utility.yul\":10783:10801   */\n      mul\n        /* \"#utility.yul\":10822:10919   */\n      tag_220\n        /* \"#utility.yul\":10852:10918   */\n      0xffffffffffffffffffffffffffffffffffffffffffffffffffffffffffffffff\n        /* \"#utility.yul\":10841:10850   */\n      dup3\n        /* \"#utility.yul\":10822:10919   */\n      tag_98\n      jump\t// in\n    tag_220:\n        /* \"#utility.yul\":10940:10979   */\n      tag_221\n        /* \"#utility.yul\":10970:10978   */\n      dup7\n        /* \"#utility.yul\":10959:10968   */\n      dup4\n        /* \"#utility.yul\":10940:10979   */\n      tag_98\n      jump\t// in\n    tag_221:\n        /* \"#utility.yul\":10928:10979   */\n      swap6\n      pop\n        /* \"#utility.yul\":11012:11016   */\n      dup1\n        /* \"#utility.yul\":11008:11017   */\n      not\n        /* \"#utility.yul\":11001:11006   */\n      dup5\n        /* \"#utility.yul\":10997:11018   */\n      and\n        /* \"#utility.yul\":10988:11018   */\n      swap4\n      pop\n        /* \"#utility.yul\":11061:11065   */\n      dup1\n        /* \"#utility.yul\":11051:11059   */\n      dup7\n        /* \"#utility.yul\":11047:11066   */\n      and\n        /* \"#utility.yul\":11040:11045   */\n      dup5\n        /* \"#utility.yul\":11037:11067   */\n      or\n        /* \"#utility.yul\":11027:11067   */\n      swap3\n      pop\n        /* \"#utility.yul\":10756:11073   */\n      pop\n      pop\n        /* \"#utility.yul\":10680:11073   */\n      swap4\n      swap3\n      pop\n      pop\n      pop\n      jump\t// out\n        /* \"#utility.yul\":11079:11139   */\n    tag_100:\n        /* \"#utility.yul\":11107:11110   */\n      0x00\n        /* \"#utility.yul\":11128:11133   */\n      dup2\n        /* \"#utility.yul\":11121:11133   */\n      swap1\n      pop\n        /* \"#utility.yul\":11079:11139   */\n      swap2\n      swap1\n      pop\n      jump\t// out\n        /* \"#utility.yul\":11145:11287   */\n    tag_101:\n        /* \"#utility.yul\":11195:11204   */\n      0x00\n        /* \"#utility.yul\":11228:11281   */\n      tag_224\n        /* \"#utility.yul\":11246:11280   */\n      tag_225\n        /* \"#utility.yul\":11255:11279   */\n      tag_226\n        /* \"#utility.yul\":11273:11278   */\n      dup5\n        /* \"#utility.yul\":11255:11279   */\n      tag_62\n      jump\t// in\n    tag_226:\n        /* \"#utility.yul\":11246:11280   */\n      tag_100\n      jump\t// in\n    tag_225:\n        /* \"#utility.yul\":11228:11281   */\n      tag_62\n      jump\t// in\n    tag_224:\n        /* \"#utility.yul\":11215:11281   */\n      swap1\n      pop\n        /* \"#utility.yul\":11145:11287   */\n      swap2\n      swap1\n      pop\n      jump\t// out\n        /* \"#utility.yul\":11293:11368   */\n    tag_102:\n        /* \"#utility.yul\":11336:11339   */\n      0x00\n        /* \"#utility.yul\":11357:11362   */\n      dup2\n        /* \"#utility.yul\":11350:11362   */\n      swap1\n      pop\n        /* \"#utility.yul\":11293:11368   */\n      swap2\n      swap1\n      pop\n      jump\t// out\n        /* \"#utility.yul\":11374:11643   */\n    tag_103:\n        /* \"#utility.yul\":11484:11523   */\n      tag_229\n        /* \"#utility.yul\":11515:11522   */\n      dup4\n        /* \"#utility.yul\":11484:11523   */\n      tag_101\n      jump\t// in\n    tag_229:\n        /* \"#utility.yul\":11545:11636   */\n      tag_230\n        /* \"#utility.yul\":11594:11635   */\n      tag_231\n        /* \"#utility.yul\":11618:11634   */\n      dup3\n        /* \"#utility.yul\":11594:11635   */\n      tag_102\n      jump\t// in\n    tag_231:\n        /* \"#utility.yul\":11586:11592   */\n      dup5\n        /* \"#utility.yul\":11579:11583   */\n      dup5\n        /* \"#utility.yul\":11573:11584   */\n      sload\n        /* \"#utility.yul\":11545:11636   */\n      tag_99\n      jump\t// in\n    tag_230:\n        /* \"#utility.yul\":11539:11543   */\n      dup3\n        /* \"#utility.yul\":11532:11637   */\n      sstore\n        /* \"#utility.yul\":11450:11643   */\n      pop\n        /* \"#utility.yul\":11374:11643   */\n      pop\n      pop\n      pop\n      jump\t// out\n        /* \"#utility.yul\":11649:11722   */\n    tag_104:\n        /* \"#utility.yul\":11694:11697   */\n      0x00\n        /* \"#utility.yul\":11649:11722   */\n      swap1\n      jump\t// out\n        /* \"#utility.yul\":11728:11917   */\n    tag_105:\n        /* \"#utility.yul\":11805:11837   */\n      tag_234\n      tag_104\n      jump\t// in\n    tag_234:\n        /* \"#utility.yul\":11846:11911   */\n      tag_235\n        /* \"#utility.yul\":11904:11910   */\n      dup2\n        /* \"#utility.yul\":11896:11902   */\n      dup5\n        /* \"#utility.yul\":11890:11894   */\n      dup5\n        /* \"#utility.yul\":11846:11911   */\n      tag_103\n      jump\t// in\n    tag_235:\n        /* \"#utility.yul\":11781:11917   */\n      pop\n        /* \"#utility.yul\":11728:11917   */\n      pop\n      pop\n      jump\t// out\n        /* \"#utility.yul\":11923:12109   */\n    tag_106:\n        /* \"#utility.yul\":11983:12103   */\n    tag_237:\n        /* \"#utility.yul\":12000:12003   */\n      dup2\n        /* \"#utility.yul\":11993:11998   */\n      dup2\n        /* \"#utility.yul\":11990:12004   */\n      lt\n        /* \"#utility.yul\":11983:12103   */\n      iszero\n      tag_239\n      jumpi\n        /* \"#utility.yul\":12054:12093   */\n      tag_240\n        /* \"#utility.yul\":12091:12092   */\n      0x00\n        /* \"#utility.yul\":12084:12089   */\n      dup3\n        /* \"#utility.yul\":12054:12093   */\n      tag_105\n      jump\t// in\n    tag_240:\n        /* \"#utility.yul\":12027:12028   */\n      0x01\n        /* \"#utility.yul\":12020:12025   */\n      dup2\n        /* \"#utility.yul\":12016:12029   */\n      add\n        /* \"#utility.yul\":12007:12029   */\n      swap1\n      pop\n        /* \"#utility.yul\":11983:12103   */\n      jump(tag_237)\n    tag_239:\n        /* \"#utility.yul\":11923:12109   */\n      pop\n      pop\n      jump\t// out\n        /* \"#utility.yul\":12115:12658   */\n    tag_107:\n        /* \"#utility.yul\":12216:12218   */\n      0x1f\n        /* \"#utility.yul\":12211:12214   */\n      dup3\n        /* \"#utility.yul\":12208:12219   */\n      gt\n        /* \"#utility.yul\":12205:12651   */\n      iszero\n      tag_242\n      jumpi\n        /* \"#utility.yul\":12250:12288   */\n      tag_243\n        /* \"#utility.yul\":12282:12287   */\n      dup2\n        /* \"#utility.yul\":12250:12288   */\n      tag_96\n      jump\t// in\n    tag_243:\n        /* \"#utility.yul\":12334:12363   */\n      tag_244\n        /* \"#utility.yul\":12352:12362   */\n      dup5\n        /* \"#utility.yul\":12334:12363   */\n      tag_97\n      jump\t// in\n    tag_244:\n        /* \"#utility.yul\":12324:12332   */\n      dup2\n        /* \"#utility.yul\":12320:12364   */\n      add\n        /* \"#utility.yul\":12517:12519   */\n      0x20\n        /* \"#utility.yul\":12505:12515   */\n      dup6\n        /* \"#utility.yul\":12502:12520   */\n      lt\n        /* \"#utility.yul\":12499:12548   */\n      iszero\n      tag_245\n      jumpi\n        /* \"#utility.yul\":12538:12546   */\n      dup2\n        /* \"#utility.yul\":12523:12546   */\n      swap1\n      pop\n        /* \"#utility.yul\":12499:12548   */\n    tag_245:\n        /* \"#utility.yul\":12561:12641   */\n      tag_246\n        /* \"#utility.yul\":12617:12639   */\n      tag_247\n        /* \"#utility.yul\":12635:12638   */\n      dup6\n        /* \"#utility.yul\":12617:12639   */\n      tag_97\n      jump\t// in\n    tag_247:\n        /* \"#utility.yul\":12607:12615   */\n      dup4\n        /* \"#utility.yul\":12603:12640   */\n      add\n        /* \"#utility.yul\":12590:12601   */\n      dup3\n        /* \"#utility.yul\":12561:12641   */\n      tag_106\n      jump\t// in\n    tag_246:\n        /* \"#utility.yul\":12220:12651   */\n      pop\n      pop\n        /* \"#utility.yul\":12205:12651   */\n    tag_242:\n        /* \"#utility.yul\":12115:12658   */\n      pop\n      pop\n      pop\n      jump\t// out\n        /* \"#utility.yul\":12664:12781   */\n    tag_108:\n        /* \"#utility.yul\":12718:12726   */\n      0x00\n        /* \"#utility.yul\":12768:12773   */\n      dup3\n        /* \"#utility.yul\":12762:12766   */\n      dup3\n        /* \"#utility.yul\":12758:12774   */\n      shr\n        /* \"#utility.yul\":12737:12774   */\n      swap1\n      pop\n        /* \"#utility.yul\":12664:12781   */\n      swap3\n      swap2\n      pop\n      pop\n      jump\t// out\n        /* \"#utility.yul\":12787:12956   */\n    tag_109:\n        /* \"#utility.yul\":12831:12837   */\n      0x00\n        /* \"#utility.yul\":12864:12915   */\n      tag_250\n        /* \"#utility.yul\":12912:12913   */\n      0x00\n        /* \"#utility.yul\":12908:12914   */\n      not\n        /* \"#utility.yul\":12900:12905   */\n      dup5\n        /* \"#utility.yul\":12897:12898   */\n      0x08\n        /* \"#utility.yul\":12893:12906   */\n      mul\n        /* \"#utility.yul\":12864:12915   */\n      tag_108\n      jump\t// in\n    tag_250:\n        /* \"#utility.yul\":12860:12916   */\n      not\n        /* \"#utility.yul\":12945:12949   */\n      dup1\n        /* \"#utility.yul\":12939:12943   */\n      dup4\n        /* \"#utility.yul\":12935:12950   */\n      and\n        /* \"#utility.yul\":12925:12950   */\n      swap2\n      pop\n        /* \"#utility.yul\":12838:12956   */\n      pop\n        /* \"#utility.yul\":12787:12956   */\n      swap3\n      swap2\n      pop\n      pop\n      jump\t// out\n        /* \"#utility.yul\":12961:13256   */\n    tag_110:\n        /* \"#utility.yul\":13037:13041   */\n      0x00\n        /* \"#utility.yul\":13183:13212   */\n      tag_252\n        /* \"#utility.yul\":13208:13211   */\n      dup4\n        /* \"#utility.yul\":13202:13206   */\n      dup4\n        /* \"#utility.yul\":13183:13212   */\n      tag_109\n      jump\t// in\n    tag_252:\n        /* \"#utility.yul\":13175:13212   */\n      swap2\n      pop\n        /* \"#utility.yul\":13245:13248   */\n      dup3\n        /* \"#utility.yul\":13242:13243   */\n      0x02\n        /* \"#utility.yul\":13238:13249   */\n      mul\n        /* \"#utility.yul\":13232:13236   */\n      dup3\n        /* \"#utility.yul\":13229:13250   */\n      or\n        /* \"#utility.yul\":13221:13250   */\n      swap1\n      pop\n        /* \"#utility.yul\":12961:13256   */\n      swap3\n      swap2\n      pop\n      pop\n      jump\t// out\n        /* \"#utility.yul\":13261:14656   */\n    tag_53:\n        /* \"#utility.yul\":13378:13415   */\n      tag_254\n        /* \"#utility.yul\":13411:13414   */\n      dup3\n        /* \"#utility.yul\":13378:13415   */\n      tag_81\n      jump\t// in\n    tag_254:\n        /* \"#utility.yul\":13480:13498   */\n      0xffffffffffffffff\n        /* \"#utility.yul\":13472:13478   */\n      dup2\n        /* \"#utility.yul\":13469:13499   */\n      gt\n        /* \"#utility.yul\":13466:13522   */\n      iszero\n      tag_255\n      jumpi\n        /* \"#utility.yul\":13502:13520   */\n      tag_256\n      tag_74\n      jump\t// in\n    tag_256:\n        /* \"#utility.yul\":13466:13522   */\n    tag_255:\n        /* \"#utility.yul\":13546:13584   */\n      tag_257\n        /* \"#utility.yul\":13578:13582   */\n      dup3\n        /* \"#utility.yul\":13572:13583   */\n      sload\n        /* \"#utility.yul\":13546:13584   */\n      tag_56\n      jump\t// in\n    tag_257:\n        /* \"#utility.yul\":13631:13698   */\n      tag_258\n        /* \"#utility.yul\":13691:13697   */\n      dup3\n        /* \"#utility.yul\":13683:13689   */\n      dup3\n        /* \"#utility.yul\":13677:13681   */\n      dup6\n        /* \"#utility.yul\":13631:13698   */\n      tag_107\n      jump\t// in\n    tag_258:\n        /* \"#utility.yul\":13725:13726   */\n      0x00\n        /* \"#utility.yul\":13749:13753   */\n      0x20\n        /* \"#utility.yul\":13736:13753   */\n      swap1\n      pop\n        /* \"#utility.yul\":13781:13783   */\n      0x1f\n        /* \"#utility.yul\":13773:13779   */\n      dup4\n        /* \"#utility.yul\":13770:13784   */\n      gt\n        /* \"#utility.yul\":13798:13799   */\n      0x01\n        /* \"#utility.yul\":13793:14411   */\n      dup2\n      eq\n      tag_260\n      jumpi\n        /* \"#utility.yul\":14455:14456   */\n      0x00\n        /* \"#utility.yul\":14472:14478   */\n      dup5\n        /* \"#utility.yul\":14469:14546   */\n      iszero\n      tag_261\n      jumpi\n        /* \"#utility.yul\":14521:14530   */\n      dup3\n        /* \"#utility.yul\":14516:14519   */\n      dup8\n        /* \"#utility.yul\":14512:14531   */\n      add\n        /* \"#utility.yul\":14506:14532   */\n      mload\n        /* \"#utility.yul\":14497:14532   */\n      swap1\n      pop\n        /* \"#utility.yul\":14469:14546   */\n    tag_261:\n        /* \"#utility.yul\":14572:14639   */\n      tag_262\n        /* \"#utility.yul\":14632:14638   */\n      dup6\n        /* \"#utility.yul\":14625:14630   */\n      dup3\n        /* \"#utility.yul\":14572:14639   */\n      tag_110\n      jump\t// in\n    tag_262:\n        /* \"#utility.yul\":14566:14570   */\n      dup7\n        /* \"#utility.yul\":14559:14640   */\n      sstore\n        /* \"#utility.yul\":14428:14650   */\n      pop\n        /* \"#utility.yul\":13763:14650   */\n      jump(tag_259)\n        /* \"#utility.yul\":13793:14411   */\n    tag_260:\n        /* \"#utility.yul\":13845:13849   */\n      0x1f\n        /* \"#utility.yul\":13841:13850   */\n      not\n        /* \"#utility.yul\":13833:13839   */\n      dup5\n        /* \"#utility.yul\":13829:13851   */\n      and\n        /* \"#utility.yul\":13879:13916   */\n      tag_263\n        /* \"#utility.yul\":13911:13915   */\n      dup7\n        /* \"#utility.yul\":13879:13916   */\n      tag_96\n      jump\t// in\n    tag_263:\n        /* \"#utility.yul\":13938:13939   */\n      0x00\n        /* \"#utility.yul\":13952:14160   */\n    tag_264:\n        /* \"#utility.yul\":13966:13973   */\n      dup3\n        /* \"#utility.yul\":13963:13964   */\n      dup2\n        /* \"#utility.yul\":13960:13974   */\n      lt\n        /* \"#utility.yul\":13952:14160   */\n      iszero\n      tag_266\n      jumpi\n        /* \"#utility.yul\":14045:14054   */\n      dup5\n        /* \"#utility.yul\":14040:14043   */\n      dup10\n        /* \"#utility.yul\":14036:14055   */\n      add\n        /* \"#utility.yul\":14030:14056   */\n      mload\n        /* \"#utility.yul\":14022:14028   */\n      dup3\n        /* \"#utility.yul\":14015:14057   */\n      sstore\n        /* \"#utility.yul\":14096:14097   */\n      0x01\n        /* \"#utility.yul\":14088:14094   */\n      dup3\n        /* \"#utility.yul\":14084:14098   */\n      add\n        /* \"#utility.yul\":14074:14098   */\n      swap2\n      pop\n        /* \"#utility.yul\":14143:14145   */\n      0x20\n        /* \"#utility.yul\":14132:14141   */\n      dup6\n        /* \"#utility.yul\":14128:14146   */\n      add\n        /* \"#utility.yul\":14115:14146   */\n      swap5\n      pop\n        /* \"#utility.yul\":13989:13993   */\n      0x20\n        /* \"#utility.yul\":13986:13987   */\n      dup2\n        /* \"#utility.yul\":13982:13994   */\n      add\n        /* \"#utility.yul\":13977:13994   */\n      swap1\n      pop\n        /* \"#utility.yul\":13952:14160   */\n      jump(tag_264)\n    tag_266:\n        /* \"#utility.yul\":14188:14194   */\n      dup7\n        /* \"#utility.yul\":14179:14186   */\n      dup4\n        /* \"#utility.yul\":14176:14195   */\n      lt\n        /* \"#utility.yul\":14173:14352   */\n      iszero\n      tag_267\n      jumpi\n        /* \"#utility.yul\":14246:14255   */\n      dup5\n        /* \"#utility.yul\":14241:14244   */\n      dup10\n        /* \"#utility.yul\":14237:14256   */\n      add\n        /* \"#utility.yul\":14231:14257   */\n      mload\n        /* \"#utility.yul\":14289:14337   */\n      tag_268\n        /* \"#utility.yul\":14331:14335   */\n      0x1f\n        /* \"#utility.yul\":14323:14329   */\n      dup10\n        /* \"#utility.yul\":14319:14336   */\n      and\n        /* \"#utility.yul\":14308:14317   */\n      dup3\n        /* \"#utility.yul\":14289:14337   */\n      tag_109\n      jump\t// in\n    tag_268:\n        /* \"#utility.yul\":14281:14287   */\n      dup4\n        /* \"#utility.yul\":14274:14338   */\n      sstore\n        /* \"#utility.yul\":14196:14352   */\n      pop\n        /* \"#utility.yul\":14173:14352   */\n    tag_267:\n        /* \"#utility.yul\":14398:14399   */\n      0x01\n        /* \"#utility.yul\":14394:14395   */\n      0x02\n        /* \"#utility.yul\":14386:14392   */\n      dup9\n        /* \"#utility.yul\":14382:14396   */\n      mul\n        /* \"#utility.yul\":14378:14400   */\n      add\n        /* \"#utility.yul\":14372:14376   */\n      dup9\n        /* \"#utility.yul\":14365:14401   */\n      sstore\n        /* \"#utility.yul\":13800:14411   */\n      pop\n      pop\n      pop\n        /* \"#utility.yul\":13763:14650   */\n    tag_259:\n      pop\n        /* \"#utility.yul\":13353:14656   */\n      pop\n      pop\n      pop\n        /* \"#utility.yul\":13261:14656   */\n      pop\n      pop\n      jump\t// out\n\n    auxdata: 0xa2646970667358221220a25907a116c62d86eb21d19c5053b88aad8549a7daa5f5abd4eaf6ae9073550264736f6c63430008110033\n}\n",
				"bytecode": {
					"linkReferences": {},
					"object": "60806040523480156200001157600080fd5b50604051620012583803806200125883398181016040528101906200003791906200027b565b81600090816200004891906200052c565b5080600160006101000a81548160ff021916908315150217905550336001806101000a81548173ffffffffffffffffffffffffffffffffffffffff021916908373ffffffffffffffffffffffffffffffffffffffff160217905550505062000613565b6000604051905090565b600080fd5b600080fd5b600080fd5b600080fd5b6000601f19601f8301169050919050565b7f4e487b7100000000000000000000000000000000000000000000000000000000600052604160045260246000fd5b6200011482620000c9565b810181811067ffffffffffffffff82111715620001365762000135620000da565b5b80604052505050565b60006200014b620000ab565b905062000159828262000109565b919050565b600067ffffffffffffffff8211156200017c576200017b620000da565b5b6200018782620000c9565b9050602081019050919050565b60005b83811015620001b457808201518184015260208101905062000197565b60008484015250505050565b6000620001d7620001d1846200015e565b6200013f565b905082815260208101848484011115620001f657620001f5620000c4565b5b6200020384828562000194565b509392505050565b600082601f830112620002235762000222620000bf565b5b815162000235848260208601620001c0565b91505092915050565b60008115159050919050565b62000255816200023e565b81146200026157600080fd5b50565b60008151905062000275816200024a565b92915050565b60008060408385031215620002955762000294620000b5565b5b600083015167ffffffffffffffff811115620002b657620002b5620000ba565b5b620002c4858286016200020b565b9250506020620002d78582860162000264565b9150509250929050565b600081519050919050565b7f4e487b7100000000000000000000000000000000000000000000000000000000600052602260045260246000fd5b600060028204905060018216806200033457607f821691505b6020821081036200034a5762000349620002ec565b5b50919050565b60008190508160005260206000209050919050565b60006020601f8301049050919050565b600082821b905092915050565b600060088302620003b47fffffffffffffffffffffffffffffffffffffffffffffffffffffffffffffffff8262000375565b620003c0868362000375565b95508019841693508086168417925050509392505050565b6000819050919050565b6000819050919050565b60006200040d620004076200040184620003d8565b620003e2565b620003d8565b9050919050565b6000819050919050565b6200042983620003ec565b62000441620004388262000414565b84845462000382565b825550505050565b600090565b6200045862000449565b620004658184846200041e565b505050565b5b818110156200048d57620004816000826200044e565b6001810190506200046b565b5050565b601f821115620004dc57620004a68162000350565b620004b18462000365565b81016020851015620004c1578190505b620004d9620004d08562000365565b8301826200046a565b50505b505050565b600082821c905092915050565b60006200050160001984600802620004e1565b1980831691505092915050565b60006200051c8383620004ee565b9150826002028217905092915050565b6200053782620002e1565b67ffffffffffffffff811115620005535762000552620000da565b5b6200055f82546200031b565b6200056c82828562000491565b600060209050601f831160018114620005a457600084156200058f578287015190505b6200059b85826200050e565b8655506200060b565b601f198416620005b48662000350565b60005b82811015620005de57848901518255600182019150602085019450602081019050620005b7565b86831015620005fe5784890151620005fa601f891682620004ee565b8355505b6001600288020188555050505b505050505050565b610c3580620006236000396000f3fe6080604052600436106100555760003560e01c806312065fe01461005a57806348c981e214610085578063578e2c0c146100a15780639faf6215146100ca578063b69ef8a8146100f5578063f58754f814610120575b600080fd5b34801561006657600080fd5b5061006f610149565b60405161007c91906103b9565b60405180910390f35b61009f600480360381019061009a9190610446565b610153565b005b3480156100ad57600080fd5b506100c860048036038101906100c391906105b9565b610293565b005b3480156100d657600080fd5b506100df6102eb565b6040516100ec9190610681565b60405180910390f35b34801561010157600080fd5b5061010a61037d565b60405161011791906103b9565b60405180910390f35b34801561012c57600080fd5b50610147600480360381019061014291906106db565b610383565b005b6000600254905090565b60018054906101000a900473ffffffffffffffffffffffffffffffffffffffff1673ffffffffffffffffffffffffffffffffffffffff168173ffffffffffffffffffffffffffffffffffffffff16036101e1576040517f08c379a00000000000000000000000000000000000000000000000000000000081526004016101d89061077a565b60405180910390fd5b600160009054906101000a900460ff16610230576040517f08c379a00000000000000000000000000000000000000000000000000000000081526004016102279061080c565b60405180910390fd5b8073ffffffffffffffffffffffffffffffffffffffff166108fc349081150290604051600060405180830381858888f19350505050158015610276573d6000803e3d6000fd5b503460026000828254610289919061085b565b9250508190555050565b6003815110156102d8576040517f08c379a00000000000000000000000000000000000000000000000000000000081526004016102cf90610901565b60405180910390fd5b80600090816102e79190610b2d565b5050565b6060600080546102fa90610950565b80601f016020809104026020016040519081016040528092919081815260200182805461032690610950565b80156103735780601f1061034857610100808354040283529160200191610373565b820191906000526020600020905b81548152906001019060200180831161035657829003601f168201915b5050505050905090565b60025481565b80600160006101000a81548160ff02191690831515021790555050565b6000819050919050565b6103b3816103a0565b82525050565b60006020820190506103ce60008301846103aa565b92915050565b6000604051905090565b600080fd5b600080fd5b600073ffffffffffffffffffffffffffffffffffffffff82169050919050565b6000610413826103e8565b9050919050565b61042381610408565b811461042e57600080fd5b50565b6000813590506104408161041a565b92915050565b60006020828403121561045c5761045b6103de565b5b600061046a84828501610431565b91505092915050565b600080fd5b600080fd5b6000601f19601f8301169050919050565b7f4e487b7100000000000000000000000000000000000000000000000000000000600052604160045260246000fd5b6104c68261047d565b810181811067ffffffffffffffff821117156104e5576104e461048e565b5b80604052505050565b60006104f86103d4565b905061050482826104bd565b919050565b600067ffffffffffffffff8211156105245761052361048e565b5b61052d8261047d565b9050602081019050919050565b82818337600083830152505050565b600061055c61055784610509565b6104ee565b90508281526020810184848401111561057857610577610478565b5b61058384828561053a565b509392505050565b600082601f8301126105a05761059f610473565b5b81356105b0848260208601610549565b91505092915050565b6000602082840312156105cf576105ce6103de565b5b600082013567ffffffffffffffff8111156105ed576105ec6103e3565b5b6105f98482850161058b565b91505092915050565b600081519050919050565b600082825260208201905092915050565b60005b8381101561063c578082015181840152602081019050610621565b60008484015250505050565b600061065382610602565b61065d818561060d565b935061066d81856020860161061e565b6106768161047d565b840191505092915050565b6000602082019050818103600083015261069b8184610648565b905092915050565b60008115159050919050565b6106b8816106a3565b81146106c357600080fd5b50565b6000813590506106d5816106af565b92915050565b6000602082840312156106f1576106f06103de565b5b60006106ff848285016106c6565b91505092915050565b7f517565207261726f206d616e64617274652064696e65726f2061207469206d6960008201527f736d6f0000000000000000000000000000000000000000000000000000000000602082015250565b600061076460238361060d565b915061076f82610708565b604082019050919050565b6000602082019050818103600083015261079381610757565b9050919050565b7f456c2070726f796563746f207961206e6f20657374612061637469766f2c206c60008201527f6f20687562696573657320686563686f20616e7465732042524f2e0000000000602082015250565b60006107f6603b8361060d565b91506108018261079a565b604082019050919050565b60006020820190508181036000830152610825816107e9565b9050919050565b7f4e487b7100000000000000000000000000000000000000000000000000000000600052601160045260246000fd5b6000610866826103a0565b9150610871836103a0565b92508282019050808211156108895761088861082c565b5b92915050565b7f456c206e6f6d6272652064656c2070726f796563746f2065732064656d61736960008201527f61646f20636f72746f0000000000000000000000000000000000000000000000602082015250565b60006108eb60298361060d565b91506108f68261088f565b604082019050919050565b6000602082019050818103600083015261091a816108de565b9050919050565b7f4e487b7100000000000000000000000000000000000000000000000000000000600052602260045260246000fd5b6000600282049050600182168061096857607f821691505b60208210810361097b5761097a610921565b5b50919050565b60008190508160005260206000209050919050565b60006020601f8301049050919050565b600082821b905092915050565b6000600883026109e37fffffffffffffffffffffffffffffffffffffffffffffffffffffffffffffffff826109a6565b6109ed86836109a6565b95508019841693508086168417925050509392505050565b6000819050919050565b6000610a2a610a25610a20846103a0565b610a05565b6103a0565b9050919050565b6000819050919050565b610a4483610a0f565b610a58610a5082610a31565b8484546109b3565b825550505050565b600090565b610a6d610a60565b610a78818484610a3b565b505050565b5b81811015610a9c57610a91600082610a65565b600181019050610a7e565b5050565b601f821115610ae157610ab281610981565b610abb84610996565b81016020851015610aca578190505b610ade610ad685610996565b830182610a7d565b50505b505050565b600082821c905092915050565b6000610b0460001984600802610ae6565b1980831691505092915050565b6000610b1d8383610af3565b9150826002028217905092915050565b610b3682610602565b67ffffffffffffffff811115610b4f57610b4e61048e565b5b610b598254610950565b610b64828285610aa0565b600060209050601f831160018114610b975760008415610b85578287015190505b610b8f8582610b11565b865550610bf7565b601f198416610ba586610981565b60005b82811015610bcd57848901518255600182019150602085019450602081019050610ba8565b86831015610bea5784890151610be6601f891682610af3565b8355505b6001600288020188555050505b50505050505056fea2646970667358221220a25907a116c62d86eb21d19c5053b88aad8549a7daa5f5abd4eaf6ae9073550264736f6c63430008110033",
					"opcodes": "PUSH1 0x80 PUSH1 0x40 MSTORE CALLVALUE DUP1 ISZERO PUSH3 0x11 JUMPI PUSH1 0x0 DUP1 REVERT JUMPDEST POP PUSH1 0x40 MLOAD PUSH3 0x1258 CODESIZE SUB DUP1 PUSH3 0x1258 DUP4 CODECOPY DUP2 DUP2 ADD PUSH1 0x40 MSTORE DUP2 ADD SWAP1 PUSH3 0x37 SWAP2 SWAP1 PUSH3 0x27B JUMP JUMPDEST DUP2 PUSH1 0x0 SWAP1 DUP2 PUSH3 0x48 SWAP2 SWAP1 PUSH3 0x52C JUMP JUMPDEST POP DUP1 PUSH1 0x1 PUSH1 0x0 PUSH2 0x100 EXP DUP2 SLOAD DUP2 PUSH1 0xFF MUL NOT AND SWAP1 DUP4 ISZERO ISZERO MUL OR SWAP1 SSTORE POP CALLER PUSH1 0x1 DUP1 PUSH2 0x100 EXP DUP2 SLOAD DUP2 PUSH20 0xFFFFFFFFFFFFFFFFFFFFFFFFFFFFFFFFFFFFFFFF MUL NOT AND SWAP1 DUP4 PUSH20 0xFFFFFFFFFFFFFFFFFFFFFFFFFFFFFFFFFFFFFFFF AND MUL OR SWAP1 SSTORE POP POP POP PUSH3 0x613 JUMP JUMPDEST PUSH1 0x0 PUSH1 0x40 MLOAD SWAP1 POP SWAP1 JUMP JUMPDEST PUSH1 0x0 DUP1 REVERT JUMPDEST PUSH1 0x0 DUP1 REVERT JUMPDEST PUSH1 0x0 DUP1 REVERT JUMPDEST PUSH1 0x0 DUP1 REVERT JUMPDEST PUSH1 0x0 PUSH1 0x1F NOT PUSH1 0x1F DUP4 ADD AND SWAP1 POP SWAP2 SWAP1 POP JUMP JUMPDEST PUSH32 0x4E487B7100000000000000000000000000000000000000000000000000000000 PUSH1 0x0 MSTORE PUSH1 0x41 PUSH1 0x4 MSTORE PUSH1 0x24 PUSH1 0x0 REVERT JUMPDEST PUSH3 0x114 DUP3 PUSH3 0xC9 JUMP JUMPDEST DUP2 ADD DUP2 DUP2 LT PUSH8 0xFFFFFFFFFFFFFFFF DUP3 GT OR ISZERO PUSH3 0x136 JUMPI PUSH3 0x135 PUSH3 0xDA JUMP JUMPDEST JUMPDEST DUP1 PUSH1 0x40 MSTORE POP POP POP JUMP JUMPDEST PUSH1 0x0 PUSH3 0x14B PUSH3 0xAB JUMP JUMPDEST SWAP1 POP PUSH3 0x159 DUP3 DUP3 PUSH3 0x109 JUMP JUMPDEST SWAP2 SWAP1 POP JUMP JUMPDEST PUSH1 0x0 PUSH8 0xFFFFFFFFFFFFFFFF DUP3 GT ISZERO PUSH3 0x17C JUMPI PUSH3 0x17B PUSH3 0xDA JUMP JUMPDEST JUMPDEST PUSH3 0x187 DUP3 PUSH3 0xC9 JUMP JUMPDEST SWAP1 POP PUSH1 0x20 DUP2 ADD SWAP1 POP SWAP2 SWAP1 POP JUMP JUMPDEST PUSH1 0x0 JUMPDEST DUP4 DUP2 LT ISZERO PUSH3 0x1B4 JUMPI DUP1 DUP3 ADD MLOAD DUP2 DUP5 ADD MSTORE PUSH1 0x20 DUP2 ADD SWAP1 POP PUSH3 0x197 JUMP JUMPDEST PUSH1 0x0 DUP5 DUP5 ADD MSTORE POP POP POP POP JUMP JUMPDEST PUSH1 0x0 PUSH3 0x1D7 PUSH3 0x1D1 DUP5 PUSH3 0x15E JUMP JUMPDEST PUSH3 0x13F JUMP JUMPDEST SWAP1 POP DUP3 DUP2 MSTORE PUSH1 0x20 DUP2 ADD DUP5 DUP5 DUP5 ADD GT ISZERO PUSH3 0x1F6 JUMPI PUSH3 0x1F5 PUSH3 0xC4 JUMP JUMPDEST JUMPDEST PUSH3 0x203 DUP5 DUP3 DUP6 PUSH3 0x194 JUMP JUMPDEST POP SWAP4 SWAP3 POP POP POP JUMP JUMPDEST PUSH1 0x0 DUP3 PUSH1 0x1F DUP4 ADD SLT PUSH3 0x223 JUMPI PUSH3 0x222 PUSH3 0xBF JUMP JUMPDEST JUMPDEST DUP2 MLOAD PUSH3 0x235 DUP5 DUP3 PUSH1 0x20 DUP7 ADD PUSH3 0x1C0 JUMP JUMPDEST SWAP2 POP POP SWAP3 SWAP2 POP POP JUMP JUMPDEST PUSH1 0x0 DUP2 ISZERO ISZERO SWAP1 POP SWAP2 SWAP1 POP JUMP JUMPDEST PUSH3 0x255 DUP2 PUSH3 0x23E JUMP JUMPDEST DUP2 EQ PUSH3 0x261 JUMPI PUSH1 0x0 DUP1 REVERT JUMPDEST POP JUMP JUMPDEST PUSH1 0x0 DUP2 MLOAD SWAP1 POP PUSH3 0x275 DUP2 PUSH3 0x24A JUMP JUMPDEST SWAP3 SWAP2 POP POP JUMP JUMPDEST PUSH1 0x0 DUP1 PUSH1 0x40 DUP4 DUP6 SUB SLT ISZERO PUSH3 0x295 JUMPI PUSH3 0x294 PUSH3 0xB5 JUMP JUMPDEST JUMPDEST PUSH1 0x0 DUP4 ADD MLOAD PUSH8 0xFFFFFFFFFFFFFFFF DUP2 GT ISZERO PUSH3 0x2B6 JUMPI PUSH3 0x2B5 PUSH3 0xBA JUMP JUMPDEST JUMPDEST PUSH3 0x2C4 DUP6 DUP3 DUP7 ADD PUSH3 0x20B JUMP JUMPDEST SWAP3 POP POP PUSH1 0x20 PUSH3 0x2D7 DUP6 DUP3 DUP7 ADD PUSH3 0x264 JUMP JUMPDEST SWAP2 POP POP SWAP3 POP SWAP3 SWAP1 POP JUMP JUMPDEST PUSH1 0x0 DUP2 MLOAD SWAP1 POP SWAP2 SWAP1 POP JUMP JUMPDEST PUSH32 0x4E487B7100000000000000000000000000000000000000000000000000000000 PUSH1 0x0 MSTORE PUSH1 0x22 PUSH1 0x4 MSTORE PUSH1 0x24 PUSH1 0x0 REVERT JUMPDEST PUSH1 0x0 PUSH1 0x2 DUP3 DIV SWAP1 POP PUSH1 0x1 DUP3 AND DUP1 PUSH3 0x334 JUMPI PUSH1 0x7F DUP3 AND SWAP2 POP JUMPDEST PUSH1 0x20 DUP3 LT DUP2 SUB PUSH3 0x34A JUMPI PUSH3 0x349 PUSH3 0x2EC JUMP JUMPDEST JUMPDEST POP SWAP2 SWAP1 POP JUMP JUMPDEST PUSH1 0x0 DUP2 SWAP1 POP DUP2 PUSH1 0x0 MSTORE PUSH1 0x20 PUSH1 0x0 KECCAK256 SWAP1 POP SWAP2 SWAP1 POP JUMP JUMPDEST PUSH1 0x0 PUSH1 0x20 PUSH1 0x1F DUP4 ADD DIV SWAP1 POP SWAP2 SWAP1 POP JUMP JUMPDEST PUSH1 0x0 DUP3 DUP3 SHL SWAP1 POP SWAP3 SWAP2 POP POP JUMP JUMPDEST PUSH1 0x0 PUSH1 0x8 DUP4 MUL PUSH3 0x3B4 PUSH32 0xFFFFFFFFFFFFFFFFFFFFFFFFFFFFFFFFFFFFFFFFFFFFFFFFFFFFFFFFFFFFFFFF DUP3 PUSH3 0x375 JUMP JUMPDEST PUSH3 0x3C0 DUP7 DUP4 PUSH3 0x375 JUMP JUMPDEST SWAP6 POP DUP1 NOT DUP5 AND SWAP4 POP DUP1 DUP7 AND DUP5 OR SWAP3 POP POP POP SWAP4 SWAP3 POP POP POP JUMP JUMPDEST PUSH1 0x0 DUP2 SWAP1 POP SWAP2 SWAP1 POP JUMP JUMPDEST PUSH1 0x0 DUP2 SWAP1 POP SWAP2 SWAP1 POP JUMP JUMPDEST PUSH1 0x0 PUSH3 0x40D PUSH3 0x407 PUSH3 0x401 DUP5 PUSH3 0x3D8 JUMP JUMPDEST PUSH3 0x3E2 JUMP JUMPDEST PUSH3 0x3D8 JUMP JUMPDEST SWAP1 POP SWAP2 SWAP1 POP JUMP JUMPDEST PUSH1 0x0 DUP2 SWAP1 POP SWAP2 SWAP1 POP JUMP JUMPDEST PUSH3 0x429 DUP4 PUSH3 0x3EC JUMP JUMPDEST PUSH3 0x441 PUSH3 0x438 DUP3 PUSH3 0x414 JUMP JUMPDEST DUP5 DUP5 SLOAD PUSH3 0x382 JUMP JUMPDEST DUP3 SSTORE POP POP POP POP JUMP JUMPDEST PUSH1 0x0 SWAP1 JUMP JUMPDEST PUSH3 0x458 PUSH3 0x449 JUMP JUMPDEST PUSH3 0x465 DUP2 DUP5 DUP5 PUSH3 0x41E JUMP JUMPDEST POP POP POP JUMP JUMPDEST JUMPDEST DUP2 DUP2 LT ISZERO PUSH3 0x48D JUMPI PUSH3 0x481 PUSH1 0x0 DUP3 PUSH3 0x44E JUMP JUMPDEST PUSH1 0x1 DUP2 ADD SWAP1 POP PUSH3 0x46B JUMP JUMPDEST POP POP JUMP JUMPDEST PUSH1 0x1F DUP3 GT ISZERO PUSH3 0x4DC JUMPI PUSH3 0x4A6 DUP2 PUSH3 0x350 JUMP JUMPDEST PUSH3 0x4B1 DUP5 PUSH3 0x365 JUMP JUMPDEST DUP2 ADD PUSH1 0x20 DUP6 LT ISZERO PUSH3 0x4C1 JUMPI DUP2 SWAP1 POP JUMPDEST PUSH3 0x4D9 PUSH3 0x4D0 DUP6 PUSH3 0x365 JUMP JUMPDEST DUP4 ADD DUP3 PUSH3 0x46A JUMP JUMPDEST POP POP JUMPDEST POP POP POP JUMP JUMPDEST PUSH1 0x0 DUP3 DUP3 SHR SWAP1 POP SWAP3 SWAP2 POP POP JUMP JUMPDEST PUSH1 0x0 PUSH3 0x501 PUSH1 0x0 NOT DUP5 PUSH1 0x8 MUL PUSH3 0x4E1 JUMP JUMPDEST NOT DUP1 DUP4 AND SWAP2 POP POP SWAP3 SWAP2 POP POP JUMP JUMPDEST PUSH1 0x0 PUSH3 0x51C DUP4 DUP4 PUSH3 0x4EE JUMP JUMPDEST SWAP2 POP DUP3 PUSH1 0x2 MUL DUP3 OR SWAP1 POP SWAP3 SWAP2 POP POP JUMP JUMPDEST PUSH3 0x537 DUP3 PUSH3 0x2E1 JUMP JUMPDEST PUSH8 0xFFFFFFFFFFFFFFFF DUP2 GT ISZERO PUSH3 0x553 JUMPI PUSH3 0x552 PUSH3 0xDA JUMP JUMPDEST JUMPDEST PUSH3 0x55F DUP3 SLOAD PUSH3 0x31B JUMP JUMPDEST PUSH3 0x56C DUP3 DUP3 DUP6 PUSH3 0x491 JUMP JUMPDEST PUSH1 0x0 PUSH1 0x20 SWAP1 POP PUSH1 0x1F DUP4 GT PUSH1 0x1 DUP2 EQ PUSH3 0x5A4 JUMPI PUSH1 0x0 DUP5 ISZERO PUSH3 0x58F JUMPI DUP3 DUP8 ADD MLOAD SWAP1 POP JUMPDEST PUSH3 0x59B DUP6 DUP3 PUSH3 0x50E JUMP JUMPDEST DUP7 SSTORE POP PUSH3 0x60B JUMP JUMPDEST PUSH1 0x1F NOT DUP5 AND PUSH3 0x5B4 DUP7 PUSH3 0x350 JUMP JUMPDEST PUSH1 0x0 JUMPDEST DUP3 DUP2 LT ISZERO PUSH3 0x5DE JUMPI DUP5 DUP10 ADD MLOAD DUP3 SSTORE PUSH1 0x1 DUP3 ADD SWAP2 POP PUSH1 0x20 DUP6 ADD SWAP5 POP PUSH1 0x20 DUP2 ADD SWAP1 POP PUSH3 0x5B7 JUMP JUMPDEST DUP7 DUP4 LT ISZERO PUSH3 0x5FE JUMPI DUP5 DUP10 ADD MLOAD PUSH3 0x5FA PUSH1 0x1F DUP10 AND DUP3 PUSH3 0x4EE JUMP JUMPDEST DUP4 SSTORE POP JUMPDEST PUSH1 0x1 PUSH1 0x2 DUP9 MUL ADD DUP9 SSTORE POP POP POP JUMPDEST POP POP POP POP POP POP JUMP JUMPDEST PUSH2 0xC35 DUP1 PUSH3 0x623 PUSH1 0x0 CODECOPY PUSH1 0x0 RETURN INVALID PUSH1 0x80 PUSH1 0x40 MSTORE PUSH1 0x4 CALLDATASIZE LT PUSH2 0x55 JUMPI PUSH1 0x0 CALLDATALOAD PUSH1 0xE0 SHR DUP1 PUSH4 0x12065FE0 EQ PUSH2 0x5A JUMPI DUP1 PUSH4 0x48C981E2 EQ PUSH2 0x85 JUMPI DUP1 PUSH4 0x578E2C0C EQ PUSH2 0xA1 JUMPI DUP1 PUSH4 0x9FAF6215 EQ PUSH2 0xCA JUMPI DUP1 PUSH4 0xB69EF8A8 EQ PUSH2 0xF5 JUMPI DUP1 PUSH4 0xF58754F8 EQ PUSH2 0x120 JUMPI JUMPDEST PUSH1 0x0 DUP1 REVERT JUMPDEST CALLVALUE DUP1 ISZERO PUSH2 0x66 JUMPI PUSH1 0x0 DUP1 REVERT JUMPDEST POP PUSH2 0x6F PUSH2 0x149 JUMP JUMPDEST PUSH1 0x40 MLOAD PUSH2 0x7C SWAP2 SWAP1 PUSH2 0x3B9 JUMP JUMPDEST PUSH1 0x40 MLOAD DUP1 SWAP2 SUB SWAP1 RETURN JUMPDEST PUSH2 0x9F PUSH1 0x4 DUP1 CALLDATASIZE SUB DUP2 ADD SWAP1 PUSH2 0x9A SWAP2 SWAP1 PUSH2 0x446 JUMP JUMPDEST PUSH2 0x153 JUMP JUMPDEST STOP JUMPDEST CALLVALUE DUP1 ISZERO PUSH2 0xAD JUMPI PUSH1 0x0 DUP1 REVERT JUMPDEST POP PUSH2 0xC8 PUSH1 0x4 DUP1 CALLDATASIZE SUB DUP2 ADD SWAP1 PUSH2 0xC3 SWAP2 SWAP1 PUSH2 0x5B9 JUMP JUMPDEST PUSH2 0x293 JUMP JUMPDEST STOP JUMPDEST CALLVALUE DUP1 ISZERO PUSH2 0xD6 JUMPI PUSH1 0x0 DUP1 REVERT JUMPDEST POP PUSH2 0xDF PUSH2 0x2EB JUMP JUMPDEST PUSH1 0x40 MLOAD PUSH2 0xEC SWAP2 SWAP1 PUSH2 0x681 JUMP JUMPDEST PUSH1 0x40 MLOAD DUP1 SWAP2 SUB SWAP1 RETURN JUMPDEST CALLVALUE DUP1 ISZERO PUSH2 0x101 JUMPI PUSH1 0x0 DUP1 REVERT JUMPDEST POP PUSH2 0x10A PUSH2 0x37D JUMP JUMPDEST PUSH1 0x40 MLOAD PUSH2 0x117 SWAP2 SWAP1 PUSH2 0x3B9 JUMP JUMPDEST PUSH1 0x40 MLOAD DUP1 SWAP2 SUB SWAP1 RETURN JUMPDEST CALLVALUE DUP1 ISZERO PUSH2 0x12C JUMPI PUSH1 0x0 DUP1 REVERT JUMPDEST POP PUSH2 0x147 PUSH1 0x4 DUP1 CALLDATASIZE SUB DUP2 ADD SWAP1 PUSH2 0x142 SWAP2 SWAP1 PUSH2 0x6DB JUMP JUMPDEST PUSH2 0x383 JUMP JUMPDEST STOP JUMPDEST PUSH1 0x0 PUSH1 0x2 SLOAD SWAP1 POP SWAP1 JUMP JUMPDEST PUSH1 0x1 DUP1 SLOAD SWAP1 PUSH2 0x100 EXP SWAP1 DIV PUSH20 0xFFFFFFFFFFFFFFFFFFFFFFFFFFFFFFFFFFFFFFFF AND PUSH20 0xFFFFFFFFFFFFFFFFFFFFFFFFFFFFFFFFFFFFFFFF AND DUP2 PUSH20 0xFFFFFFFFFFFFFFFFFFFFFFFFFFFFFFFFFFFFFFFF AND SUB PUSH2 0x1E1 JUMPI PUSH1 0x40 MLOAD PUSH32 0x8C379A000000000000000000000000000000000000000000000000000000000 DUP2 MSTORE PUSH1 0x4 ADD PUSH2 0x1D8 SWAP1 PUSH2 0x77A JUMP JUMPDEST PUSH1 0x40 MLOAD DUP1 SWAP2 SUB SWAP1 REVERT JUMPDEST PUSH1 0x1 PUSH1 0x0 SWAP1 SLOAD SWAP1 PUSH2 0x100 EXP SWAP1 DIV PUSH1 0xFF AND PUSH2 0x230 JUMPI PUSH1 0x40 MLOAD PUSH32 0x8C379A000000000000000000000000000000000000000000000000000000000 DUP2 MSTORE PUSH1 0x4 ADD PUSH2 0x227 SWAP1 PUSH2 0x80C JUMP JUMPDEST PUSH1 0x40 MLOAD DUP1 SWAP2 SUB SWAP1 REVERT JUMPDEST DUP1 PUSH20 0xFFFFFFFFFFFFFFFFFFFFFFFFFFFFFFFFFFFFFFFF AND PUSH2 0x8FC CALLVALUE SWAP1 DUP2 ISZERO MUL SWAP1 PUSH1 0x40 MLOAD PUSH1 0x0 PUSH1 0x40 MLOAD DUP1 DUP4 SUB DUP2 DUP6 DUP9 DUP9 CALL SWAP4 POP POP POP POP ISZERO DUP1 ISZERO PUSH2 0x276 JUMPI RETURNDATASIZE PUSH1 0x0 DUP1 RETURNDATACOPY RETURNDATASIZE PUSH1 0x0 REVERT JUMPDEST POP CALLVALUE PUSH1 0x2 PUSH1 0x0 DUP3 DUP3 SLOAD PUSH2 0x289 SWAP2 SWAP1 PUSH2 0x85B JUMP JUMPDEST SWAP3 POP POP DUP2 SWAP1 SSTORE POP POP JUMP JUMPDEST PUSH1 0x3 DUP2 MLOAD LT ISZERO PUSH2 0x2D8 JUMPI PUSH1 0x40 MLOAD PUSH32 0x8C379A000000000000000000000000000000000000000000000000000000000 DUP2 MSTORE PUSH1 0x4 ADD PUSH2 0x2CF SWAP1 PUSH2 0x901 JUMP JUMPDEST PUSH1 0x40 MLOAD DUP1 SWAP2 SUB SWAP1 REVERT JUMPDEST DUP1 PUSH1 0x0 SWAP1 DUP2 PUSH2 0x2E7 SWAP2 SWAP1 PUSH2 0xB2D JUMP JUMPDEST POP POP JUMP JUMPDEST PUSH1 0x60 PUSH1 0x0 DUP1 SLOAD PUSH2 0x2FA SWAP1 PUSH2 0x950 JUMP JUMPDEST DUP1 PUSH1 0x1F ADD PUSH1 0x20 DUP1 SWAP2 DIV MUL PUSH1 0x20 ADD PUSH1 0x40 MLOAD SWAP1 DUP2 ADD PUSH1 0x40 MSTORE DUP1 SWAP3 SWAP2 SWAP1 DUP2 DUP2 MSTORE PUSH1 0x20 ADD DUP3 DUP1 SLOAD PUSH2 0x326 SWAP1 PUSH2 0x950 JUMP JUMPDEST DUP1 ISZERO PUSH2 0x373 JUMPI DUP1 PUSH1 0x1F LT PUSH2 0x348 JUMPI PUSH2 0x100 DUP1 DUP4 SLOAD DIV MUL DUP4 MSTORE SWAP2 PUSH1 0x20 ADD SWAP2 PUSH2 0x373 JUMP JUMPDEST DUP3 ADD SWAP2 SWAP1 PUSH1 0x0 MSTORE PUSH1 0x20 PUSH1 0x0 KECCAK256 SWAP1 JUMPDEST DUP2 SLOAD DUP2 MSTORE SWAP1 PUSH1 0x1 ADD SWAP1 PUSH1 0x20 ADD DUP1 DUP4 GT PUSH2 0x356 JUMPI DUP3 SWAP1 SUB PUSH1 0x1F AND DUP3 ADD SWAP2 JUMPDEST POP POP POP POP POP SWAP1 POP SWAP1 JUMP JUMPDEST PUSH1 0x2 SLOAD DUP2 JUMP JUMPDEST DUP1 PUSH1 0x1 PUSH1 0x0 PUSH2 0x100 EXP DUP2 SLOAD DUP2 PUSH1 0xFF MUL NOT AND SWAP1 DUP4 ISZERO ISZERO MUL OR SWAP1 SSTORE POP POP JUMP JUMPDEST PUSH1 0x0 DUP2 SWAP1 POP SWAP2 SWAP1 POP JUMP JUMPDEST PUSH2 0x3B3 DUP2 PUSH2 0x3A0 JUMP JUMPDEST DUP3 MSTORE POP POP JUMP JUMPDEST PUSH1 0x0 PUSH1 0x20 DUP3 ADD SWAP1 POP PUSH2 0x3CE PUSH1 0x0 DUP4 ADD DUP5 PUSH2 0x3AA JUMP JUMPDEST SWAP3 SWAP2 POP POP JUMP JUMPDEST PUSH1 0x0 PUSH1 0x40 MLOAD SWAP1 POP SWAP1 JUMP JUMPDEST PUSH1 0x0 DUP1 REVERT JUMPDEST PUSH1 0x0 DUP1 REVERT JUMPDEST PUSH1 0x0 PUSH20 0xFFFFFFFFFFFFFFFFFFFFFFFFFFFFFFFFFFFFFFFF DUP3 AND SWAP1 POP SWAP2 SWAP1 POP JUMP JUMPDEST PUSH1 0x0 PUSH2 0x413 DUP3 PUSH2 0x3E8 JUMP JUMPDEST SWAP1 POP SWAP2 SWAP1 POP JUMP JUMPDEST PUSH2 0x423 DUP2 PUSH2 0x408 JUMP JUMPDEST DUP2 EQ PUSH2 0x42E JUMPI PUSH1 0x0 DUP1 REVERT JUMPDEST POP JUMP JUMPDEST PUSH1 0x0 DUP2 CALLDATALOAD SWAP1 POP PUSH2 0x440 DUP2 PUSH2 0x41A JUMP JUMPDEST SWAP3 SWAP2 POP POP JUMP JUMPDEST PUSH1 0x0 PUSH1 0x20 DUP3 DUP5 SUB SLT ISZERO PUSH2 0x45C JUMPI PUSH2 0x45B PUSH2 0x3DE JUMP JUMPDEST JUMPDEST PUSH1 0x0 PUSH2 0x46A DUP5 DUP3 DUP6 ADD PUSH2 0x431 JUMP JUMPDEST SWAP2 POP POP SWAP3 SWAP2 POP POP JUMP JUMPDEST PUSH1 0x0 DUP1 REVERT JUMPDEST PUSH1 0x0 DUP1 REVERT JUMPDEST PUSH1 0x0 PUSH1 0x1F NOT PUSH1 0x1F DUP4 ADD AND SWAP1 POP SWAP2 SWAP1 POP JUMP JUMPDEST PUSH32 0x4E487B7100000000000000000000000000000000000000000000000000000000 PUSH1 0x0 MSTORE PUSH1 0x41 PUSH1 0x4 MSTORE PUSH1 0x24 PUSH1 0x0 REVERT JUMPDEST PUSH2 0x4C6 DUP3 PUSH2 0x47D JUMP JUMPDEST DUP2 ADD DUP2 DUP2 LT PUSH8 0xFFFFFFFFFFFFFFFF DUP3 GT OR ISZERO PUSH2 0x4E5 JUMPI PUSH2 0x4E4 PUSH2 0x48E JUMP JUMPDEST JUMPDEST DUP1 PUSH1 0x40 MSTORE POP POP POP JUMP JUMPDEST PUSH1 0x0 PUSH2 0x4F8 PUSH2 0x3D4 JUMP JUMPDEST SWAP1 POP PUSH2 0x504 DUP3 DUP3 PUSH2 0x4BD JUMP JUMPDEST SWAP2 SWAP1 POP JUMP JUMPDEST PUSH1 0x0 PUSH8 0xFFFFFFFFFFFFFFFF DUP3 GT ISZERO PUSH2 0x524 JUMPI PUSH2 0x523 PUSH2 0x48E JUMP JUMPDEST JUMPDEST PUSH2 0x52D DUP3 PUSH2 0x47D JUMP JUMPDEST SWAP1 POP PUSH1 0x20 DUP2 ADD SWAP1 POP SWAP2 SWAP1 POP JUMP JUMPDEST DUP3 DUP2 DUP4 CALLDATACOPY PUSH1 0x0 DUP4 DUP4 ADD MSTORE POP POP POP JUMP JUMPDEST PUSH1 0x0 PUSH2 0x55C PUSH2 0x557 DUP5 PUSH2 0x509 JUMP JUMPDEST PUSH2 0x4EE JUMP JUMPDEST SWAP1 POP DUP3 DUP2 MSTORE PUSH1 0x20 DUP2 ADD DUP5 DUP5 DUP5 ADD GT ISZERO PUSH2 0x578 JUMPI PUSH2 0x577 PUSH2 0x478 JUMP JUMPDEST JUMPDEST PUSH2 0x583 DUP5 DUP3 DUP6 PUSH2 0x53A JUMP JUMPDEST POP SWAP4 SWAP3 POP POP POP JUMP JUMPDEST PUSH1 0x0 DUP3 PUSH1 0x1F DUP4 ADD SLT PUSH2 0x5A0 JUMPI PUSH2 0x59F PUSH2 0x473 JUMP JUMPDEST JUMPDEST DUP2 CALLDATALOAD PUSH2 0x5B0 DUP5 DUP3 PUSH1 0x20 DUP7 ADD PUSH2 0x549 JUMP JUMPDEST SWAP2 POP POP SWAP3 SWAP2 POP POP JUMP JUMPDEST PUSH1 0x0 PUSH1 0x20 DUP3 DUP5 SUB SLT ISZERO PUSH2 0x5CF JUMPI PUSH2 0x5CE PUSH2 0x3DE JUMP JUMPDEST JUMPDEST PUSH1 0x0 DUP3 ADD CALLDATALOAD PUSH8 0xFFFFFFFFFFFFFFFF DUP2 GT ISZERO PUSH2 0x5ED JUMPI PUSH2 0x5EC PUSH2 0x3E3 JUMP JUMPDEST JUMPDEST PUSH2 0x5F9 DUP5 DUP3 DUP6 ADD PUSH2 0x58B JUMP JUMPDEST SWAP2 POP POP SWAP3 SWAP2 POP POP JUMP JUMPDEST PUSH1 0x0 DUP2 MLOAD SWAP1 POP SWAP2 SWAP1 POP JUMP JUMPDEST PUSH1 0x0 DUP3 DUP3 MSTORE PUSH1 0x20 DUP3 ADD SWAP1 POP SWAP3 SWAP2 POP POP JUMP JUMPDEST PUSH1 0x0 JUMPDEST DUP4 DUP2 LT ISZERO PUSH2 0x63C JUMPI DUP1 DUP3 ADD MLOAD DUP2 DUP5 ADD MSTORE PUSH1 0x20 DUP2 ADD SWAP1 POP PUSH2 0x621 JUMP JUMPDEST PUSH1 0x0 DUP5 DUP5 ADD MSTORE POP POP POP POP JUMP JUMPDEST PUSH1 0x0 PUSH2 0x653 DUP3 PUSH2 0x602 JUMP JUMPDEST PUSH2 0x65D DUP2 DUP6 PUSH2 0x60D JUMP JUMPDEST SWAP4 POP PUSH2 0x66D DUP2 DUP6 PUSH1 0x20 DUP7 ADD PUSH2 0x61E JUMP JUMPDEST PUSH2 0x676 DUP2 PUSH2 0x47D JUMP JUMPDEST DUP5 ADD SWAP2 POP POP SWAP3 SWAP2 POP POP JUMP JUMPDEST PUSH1 0x0 PUSH1 0x20 DUP3 ADD SWAP1 POP DUP2 DUP2 SUB PUSH1 0x0 DUP4 ADD MSTORE PUSH2 0x69B DUP2 DUP5 PUSH2 0x648 JUMP JUMPDEST SWAP1 POP SWAP3 SWAP2 POP POP JUMP JUMPDEST PUSH1 0x0 DUP2 ISZERO ISZERO SWAP1 POP SWAP2 SWAP1 POP JUMP JUMPDEST PUSH2 0x6B8 DUP2 PUSH2 0x6A3 JUMP JUMPDEST DUP2 EQ PUSH2 0x6C3 JUMPI PUSH1 0x0 DUP1 REVERT JUMPDEST POP JUMP JUMPDEST PUSH1 0x0 DUP2 CALLDATALOAD SWAP1 POP PUSH2 0x6D5 DUP2 PUSH2 0x6AF JUMP JUMPDEST SWAP3 SWAP2 POP POP JUMP JUMPDEST PUSH1 0x0 PUSH1 0x20 DUP3 DUP5 SUB SLT ISZERO PUSH2 0x6F1 JUMPI PUSH2 0x6F0 PUSH2 0x3DE JUMP JUMPDEST JUMPDEST PUSH1 0x0 PUSH2 0x6FF DUP5 DUP3 DUP6 ADD PUSH2 0x6C6 JUMP JUMPDEST SWAP2 POP POP SWAP3 SWAP2 POP POP JUMP JUMPDEST PUSH32 0x517565207261726F206D616E64617274652064696E65726F2061207469206D69 PUSH1 0x0 DUP3 ADD MSTORE PUSH32 0x736D6F0000000000000000000000000000000000000000000000000000000000 PUSH1 0x20 DUP3 ADD MSTORE POP JUMP JUMPDEST PUSH1 0x0 PUSH2 0x764 PUSH1 0x23 DUP4 PUSH2 0x60D JUMP JUMPDEST SWAP2 POP PUSH2 0x76F DUP3 PUSH2 0x708 JUMP JUMPDEST PUSH1 0x40 DUP3 ADD SWAP1 POP SWAP2 SWAP1 POP JUMP JUMPDEST PUSH1 0x0 PUSH1 0x20 DUP3 ADD SWAP1 POP DUP2 DUP2 SUB PUSH1 0x0 DUP4 ADD MSTORE PUSH2 0x793 DUP2 PUSH2 0x757 JUMP JUMPDEST SWAP1 POP SWAP2 SWAP1 POP JUMP JUMPDEST PUSH32 0x456C2070726F796563746F207961206E6F20657374612061637469766F2C206C PUSH1 0x0 DUP3 ADD MSTORE PUSH32 0x6F20687562696573657320686563686F20616E7465732042524F2E0000000000 PUSH1 0x20 DUP3 ADD MSTORE POP JUMP JUMPDEST PUSH1 0x0 PUSH2 0x7F6 PUSH1 0x3B DUP4 PUSH2 0x60D JUMP JUMPDEST SWAP2 POP PUSH2 0x801 DUP3 PUSH2 0x79A JUMP JUMPDEST PUSH1 0x40 DUP3 ADD SWAP1 POP SWAP2 SWAP1 POP JUMP JUMPDEST PUSH1 0x0 PUSH1 0x20 DUP3 ADD SWAP1 POP DUP2 DUP2 SUB PUSH1 0x0 DUP4 ADD MSTORE PUSH2 0x825 DUP2 PUSH2 0x7E9 JUMP JUMPDEST SWAP1 POP SWAP2 SWAP1 POP JUMP JUMPDEST PUSH32 0x4E487B7100000000000000000000000000000000000000000000000000000000 PUSH1 0x0 MSTORE PUSH1 0x11 PUSH1 0x4 MSTORE PUSH1 0x24 PUSH1 0x0 REVERT JUMPDEST PUSH1 0x0 PUSH2 0x866 DUP3 PUSH2 0x3A0 JUMP JUMPDEST SWAP2 POP PUSH2 0x871 DUP4 PUSH2 0x3A0 JUMP JUMPDEST SWAP3 POP DUP3 DUP3 ADD SWAP1 POP DUP1 DUP3 GT ISZERO PUSH2 0x889 JUMPI PUSH2 0x888 PUSH2 0x82C JUMP JUMPDEST JUMPDEST SWAP3 SWAP2 POP POP JUMP JUMPDEST PUSH32 0x456C206E6F6D6272652064656C2070726F796563746F2065732064656D617369 PUSH1 0x0 DUP3 ADD MSTORE PUSH32 0x61646F20636F72746F0000000000000000000000000000000000000000000000 PUSH1 0x20 DUP3 ADD MSTORE POP JUMP JUMPDEST PUSH1 0x0 PUSH2 0x8EB PUSH1 0x29 DUP4 PUSH2 0x60D JUMP JUMPDEST SWAP2 POP PUSH2 0x8F6 DUP3 PUSH2 0x88F JUMP JUMPDEST PUSH1 0x40 DUP3 ADD SWAP1 POP SWAP2 SWAP1 POP JUMP JUMPDEST PUSH1 0x0 PUSH1 0x20 DUP3 ADD SWAP1 POP DUP2 DUP2 SUB PUSH1 0x0 DUP4 ADD MSTORE PUSH2 0x91A DUP2 PUSH2 0x8DE JUMP JUMPDEST SWAP1 POP SWAP2 SWAP1 POP JUMP JUMPDEST PUSH32 0x4E487B7100000000000000000000000000000000000000000000000000000000 PUSH1 0x0 MSTORE PUSH1 0x22 PUSH1 0x4 MSTORE PUSH1 0x24 PUSH1 0x0 REVERT JUMPDEST PUSH1 0x0 PUSH1 0x2 DUP3 DIV SWAP1 POP PUSH1 0x1 DUP3 AND DUP1 PUSH2 0x968 JUMPI PUSH1 0x7F DUP3 AND SWAP2 POP JUMPDEST PUSH1 0x20 DUP3 LT DUP2 SUB PUSH2 0x97B JUMPI PUSH2 0x97A PUSH2 0x921 JUMP JUMPDEST JUMPDEST POP SWAP2 SWAP1 POP JUMP JUMPDEST PUSH1 0x0 DUP2 SWAP1 POP DUP2 PUSH1 0x0 MSTORE PUSH1 0x20 PUSH1 0x0 KECCAK256 SWAP1 POP SWAP2 SWAP1 POP JUMP JUMPDEST PUSH1 0x0 PUSH1 0x20 PUSH1 0x1F DUP4 ADD DIV SWAP1 POP SWAP2 SWAP1 POP JUMP JUMPDEST PUSH1 0x0 DUP3 DUP3 SHL SWAP1 POP SWAP3 SWAP2 POP POP JUMP JUMPDEST PUSH1 0x0 PUSH1 0x8 DUP4 MUL PUSH2 0x9E3 PUSH32 0xFFFFFFFFFFFFFFFFFFFFFFFFFFFFFFFFFFFFFFFFFFFFFFFFFFFFFFFFFFFFFFFF DUP3 PUSH2 0x9A6 JUMP JUMPDEST PUSH2 0x9ED DUP7 DUP4 PUSH2 0x9A6 JUMP JUMPDEST SWAP6 POP DUP1 NOT DUP5 AND SWAP4 POP DUP1 DUP7 AND DUP5 OR SWAP3 POP POP POP SWAP4 SWAP3 POP POP POP JUMP JUMPDEST PUSH1 0x0 DUP2 SWAP1 POP SWAP2 SWAP1 POP JUMP JUMPDEST PUSH1 0x0 PUSH2 0xA2A PUSH2 0xA25 PUSH2 0xA20 DUP5 PUSH2 0x3A0 JUMP JUMPDEST PUSH2 0xA05 JUMP JUMPDEST PUSH2 0x3A0 JUMP JUMPDEST SWAP1 POP SWAP2 SWAP1 POP JUMP JUMPDEST PUSH1 0x0 DUP2 SWAP1 POP SWAP2 SWAP1 POP JUMP JUMPDEST PUSH2 0xA44 DUP4 PUSH2 0xA0F JUMP JUMPDEST PUSH2 0xA58 PUSH2 0xA50 DUP3 PUSH2 0xA31 JUMP JUMPDEST DUP5 DUP5 SLOAD PUSH2 0x9B3 JUMP JUMPDEST DUP3 SSTORE POP POP POP POP JUMP JUMPDEST PUSH1 0x0 SWAP1 JUMP JUMPDEST PUSH2 0xA6D PUSH2 0xA60 JUMP JUMPDEST PUSH2 0xA78 DUP2 DUP5 DUP5 PUSH2 0xA3B JUMP JUMPDEST POP POP POP JUMP JUMPDEST JUMPDEST DUP2 DUP2 LT ISZERO PUSH2 0xA9C JUMPI PUSH2 0xA91 PUSH1 0x0 DUP3 PUSH2 0xA65 JUMP JUMPDEST PUSH1 0x1 DUP2 ADD SWAP1 POP PUSH2 0xA7E JUMP JUMPDEST POP POP JUMP JUMPDEST PUSH1 0x1F DUP3 GT ISZERO PUSH2 0xAE1 JUMPI PUSH2 0xAB2 DUP2 PUSH2 0x981 JUMP JUMPDEST PUSH2 0xABB DUP5 PUSH2 0x996 JUMP JUMPDEST DUP2 ADD PUSH1 0x20 DUP6 LT ISZERO PUSH2 0xACA JUMPI DUP2 SWAP1 POP JUMPDEST PUSH2 0xADE PUSH2 0xAD6 DUP6 PUSH2 0x996 JUMP JUMPDEST DUP4 ADD DUP3 PUSH2 0xA7D JUMP JUMPDEST POP POP JUMPDEST POP POP POP JUMP JUMPDEST PUSH1 0x0 DUP3 DUP3 SHR SWAP1 POP SWAP3 SWAP2 POP POP JUMP JUMPDEST PUSH1 0x0 PUSH2 0xB04 PUSH1 0x0 NOT DUP5 PUSH1 0x8 MUL PUSH2 0xAE6 JUMP JUMPDEST NOT DUP1 DUP4 AND SWAP2 POP POP SWAP3 SWAP2 POP POP JUMP JUMPDEST PUSH1 0x0 PUSH2 0xB1D DUP4 DUP4 PUSH2 0xAF3 JUMP JUMPDEST SWAP2 POP DUP3 PUSH1 0x2 MUL DUP3 OR SWAP1 POP SWAP3 SWAP2 POP POP JUMP JUMPDEST PUSH2 0xB36 DUP3 PUSH2 0x602 JUMP JUMPDEST PUSH8 0xFFFFFFFFFFFFFFFF DUP2 GT ISZERO PUSH2 0xB4F JUMPI PUSH2 0xB4E PUSH2 0x48E JUMP JUMPDEST JUMPDEST PUSH2 0xB59 DUP3 SLOAD PUSH2 0x950 JUMP JUMPDEST PUSH2 0xB64 DUP3 DUP3 DUP6 PUSH2 0xAA0 JUMP JUMPDEST PUSH1 0x0 PUSH1 0x20 SWAP1 POP PUSH1 0x1F DUP4 GT PUSH1 0x1 DUP2 EQ PUSH2 0xB97 JUMPI PUSH1 0x0 DUP5 ISZERO PUSH2 0xB85 JUMPI DUP3 DUP8 ADD MLOAD SWAP1 POP JUMPDEST PUSH2 0xB8F DUP6 DUP3 PUSH2 0xB11 JUMP JUMPDEST DUP7 SSTORE POP PUSH2 0xBF7 JUMP JUMPDEST PUSH1 0x1F NOT DUP5 AND PUSH2 0xBA5 DUP7 PUSH2 0x981 JUMP JUMPDEST PUSH1 0x0 JUMPDEST DUP3 DUP2 LT ISZERO PUSH2 0xBCD JUMPI DUP5 DUP10 ADD MLOAD DUP3 SSTORE PUSH1 0x1 DUP3 ADD SWAP2 POP PUSH1 0x20 DUP6 ADD SWAP5 POP PUSH1 0x20 DUP2 ADD SWAP1 POP PUSH2 0xBA8 JUMP JUMPDEST DUP7 DUP4 LT ISZERO PUSH2 0xBEA JUMPI DUP5 DUP10 ADD MLOAD PUSH2 0xBE6 PUSH1 0x1F DUP10 AND DUP3 PUSH2 0xAF3 JUMP JUMPDEST DUP4 SSTORE POP JUMPDEST PUSH1 0x1 PUSH1 0x2 DUP9 MUL ADD DUP9 SSTORE POP POP POP JUMPDEST POP POP POP POP POP POP JUMP INVALID LOG2 PUSH5 0x6970667358 0x22 SLT KECCAK256 LOG2 MSIZE SMOD LOG1 AND 0xC6 0x2D DUP7 0xEB 0x21 0xD1 SWAP13 POP MSTORE8 0xB8 DUP11 0xAD DUP6 0x49 0xA7 0xDA 0xA5 CREATE2 0xAB 0xD4 0xEA 0xF6 0xAE SWAP1 PUSH20 0x550264736F6C6343000811003300000000000000 "
				},
				"gasEstimates": {
					"creation": {
						"codeDepositCost": "625000",
						"executionCost": "infinite",
						"totalCost": "infinite"
					},
					"external": {
						"balance()": "2495",
						"changeProjectName(string)": "infinite",
						"changeProjectState(bool)": "24767",
						"getBalance()": "2415",
						"getProjectName()": "infinite",
						"sendEther(address)": "infinite"
					}
				},
				"methodIdentifiers": {
					"balance()": "b69ef8a8",
					"changeProjectName(string)": "578e2c0c",
					"changeProjectState(bool)": "f58754f8",
					"getBalance()": "12065fe0",
					"getProjectName()": "9faf6215",
					"sendEther(address)": "48c981e2"
				}
			},
			"storageLayout": {
				"storage": [
					{
						"astId": 3,
						"contract": "contracts/CrowFunding.sol:CrowdFunding",
						"label": "projectName",
						"offset": 0,
						"slot": "0",
						"type": "t_string_storage"
					},
					{
						"astId": 5,
						"contract": "contracts/CrowFunding.sol:CrowdFunding",
						"label": "isActive",
						"offset": 0,
						"slot": "1",
						"type": "t_bool"
					},
					{
						"astId": 7,
						"contract": "contracts/CrowFunding.sol:CrowdFunding",
						"label": "mainOwnerAddress",
						"offset": 1,
						"slot": "1",
						"type": "t_address"
					},
					{
						"astId": 9,
						"contract": "contracts/CrowFunding.sol:CrowdFunding",
						"label": "balance",
						"offset": 0,
						"slot": "2",
						"type": "t_uint256"
					}
				],
				"types": {
					"t_address": {
						"encoding": "inplace",
						"label": "address",
						"numberOfBytes": "20"
					},
					"t_bool": {
						"encoding": "inplace",
						"label": "bool",
						"numberOfBytes": "1"
					},
					"t_string_storage": {
						"encoding": "bytes",
						"label": "string",
						"numberOfBytes": "32"
					},
					"t_uint256": {
						"encoding": "inplace",
						"label": "uint256",
						"numberOfBytes": "32"
					}
				}
			},
			"userdoc": {
				"kind": "user",
				"methods": {},
				"version": 1
			}
		}
	}
}